:020000040800F2
:100000002830002029050008810500088105000826
:100010008105000881050008810500080000000036
:100020000000000000000000000000008105000842
:10003000810500080000000081050008690700082C
:100040008105000881050008810500088105000878
:100050008105000881050008810500088105000868
:100060008105000881050008810500088105000858
:10007000291900088105000881050008810500088C
:100080008105000881050008810500088105000838
:100090008105000881050008810500088105000828
:1000A0008105000881050008810500088105000818
:1000B00081050008811100088105000881050008FC
:1000C00081050008810500088105000881050008F8
:1000D0008105000881050008810500083D19000818
:1000E00081050008810500088105000881050008D8
:1000F00081050008810500088105000881050008C8
:1001000081050008810500088105000881050008B7
:1001100081050008810500088105000881050008A7
:100120008105000881050008810500088105000897
:100130008105000881050008810500088105000887
:100140008105000881050008810500088105000877
:100150008105000881050008A10E0008810500083E
:100160008105000881050008810500088105000857
:100170008105000881050008810500088105000847
:10018000810500088105000880B58AB000AF78605D
:10019000396000237B6200233B620023FB61002364
:1001A000BB617B681B8A9BB27B627B6A23F44053F2
:1001B0007B623B68DB881A467B6A13437B627B6AFF
:1001C0009AB27B681A827B689B899BB27B627B6A4E
:1001D00023F4B05323F00C037B623B689A883B689E
:1001E0001B8913439AB23B685B8913439BB21A463F
:1001F0007B6A13437B627B6A9AB27B689A817B68D5
:100200009B8A9BB27B627B6A23F440737B623B6870
:100210009B891A467B6A13437B627B6A9AB27B682E
:100220009A8207F10803184600F052FE7B68314AB3
:10023000934203D07B68304A934202D17B693B6290
:1002400001E03B693B627B689B899BB29BB21BB21E
:10025000002B0CDA3A6A13469B0013449A001A44A6
:100260003B681B685B00B2FBF3F3FB610BE03A6A8F
:1002700013469B0013449A001A443B681B689B007A
:10028000B2FBF3F3FB61FB691C4AA2FB03235B098E
:100290001B017B627B6A1B09642202FB03F3FA6980
:1002A000D31ABB617B689B899BB29BB21BB2002BAC
:1002B0000CDABB69DB003233104AA2FB03235B0973
:1002C00003F007037A6A13437B620BE0BB691B01EF
:1002D00032330A4AA2FB03235B0903F00F037A6A55
:1002E00013437B627B6A9AB27B681A812837BD46CA
:1002F00080BD00BF00100140001401401F85EB517C
:1003000080B483B000AF78600B46FB70FB78002BA5
:1003100008D07B689B899BB243F400539AB27B68F8
:100320009A8107E07B689B899BB223F400539AB2C1
:100330007B689A810C37BD465DF8047B704700BF2F
:1003400080B483B000AF78607B689B889BB2C3F3B6
:1003500008039BB218460C37BD465DF8047B704716
:1003600080B483B000AF78600B467B8013467B700F
:100370007B78002B08D07B689B8A9AB27B881343DA
:100380009AB27B689A8209E07B689B8A9AB27B88E2
:10039000DB439BB213409AB27B689A820C37BD460E
:1003A0005DF8047B704700BF80B487B000AF786011
:1003B0000B467B8013467B7000233B610023FB6070
:1003C0000023BB6000237B617B687B617B88DBB2A1
:1003D0005B09DBB23B617B8803F01F03FB60FB68BA
:1003E000012202FA03F3BB603B69012B03D17B6955
:1003F0000C337B6109E03B69022B03D17B6910332D
:100400007B6102E07B6914337B617B78002B06D033
:100410007B697A691168BA680A431A6006E07B69E9
:100420007A691168BA68D2430A401A601C37BD461F
:100430005DF8047B704700BF80B487B000AF786080
:100440000B467B800023FB6000237B610023BB60A5
:100450000023FB747B88DBB25B09DBB2BB607B886B
:1004600003F01F037B617B69012202FA03F37B61C6
:10047000BB68012B07D17B689B899BB21A467B69BD
:1004800013407B6111E0BB68022B07D17B681B8A9C
:100490009BB21A467B6913407B6106E07B689B8AAE
:1004A0009BB21A467B6913407B617B881B0A9BB217
:1004B000FB60FB68012202FA03F3FB607B681B8888
:1004C0009BB21A46FB681340FB607B69002B05D08A
:1004D000FB68002B02D00123FB7401E00023FB74B6
:1004E000FB7C18461C37BD465DF8047B704700BF97
:1004F00080B485B000AF78600B467B800023FB8121
:100500000023BB817B881B0AFB81FB89012202FA45
:1005100003F3BB81BB89DB439AB27B681A80143733
:10052000BD465DF8047B704780B582B000AF0F4BCD
:100530007B600F4B3B6007E03B681A1D3A607A68AE
:10054000111D796012681A603B680A4A9342F3D31E
:1005500009480A494FF000028842B8BF40F8042B0E
:10056000FADB00F073F90837BD4680BD681C00084F
:1005700000000020000100200001002028280020A9
:1005800080B400AFFEE700BF80B582B000AF272384
:100590003B7103237B710023BB710123FB713B1D66
:1005A000184601F043FA46233B7101237B71002377
:1005B000BB710123FB713B1D184601F037FAFF2385
:1005C0003B7102237B710023BB710123FB713B1D37
:1005D000184601F02BFA0837BD4680BD80B582B0C1
:1005E00000AF0120012100F01DFD4FF400633B60CE
:1005F00001233B7102237B710023BB710023FB713C
:100600003B460D48194600F0CBFD0420012100F0C7
:1006100009FD01233B6000233B7102237B71002312
:10062000BB710223FB713B460448194600F0B8FD3C
:100630000837BD4680BD00BF0000024000080240F0
:1006400080B596B000AF0220012100F0EBFC102035
:10065000012100F023FDC0233B65022387F85430BD
:10066000002387F85630002387F85730022387F895
:10067000553007F150033748194600F091FD3548D1
:100680000621072200F050FE32480721072200F021
:100690004BFE4FF4E1333B640023A7F844300023C2
:1006A000A7F846300023A7F848300023A7F84C30BD
:1006B0000C23A7F84A3007F1400327481946FFF7F3
:1006C00063FD254840F225510122FFF76DFE2348C6
:1006D00000F018FF4FF48000012100F0A3FC00237C
:1006E0003B6300237B630023BB6300237B624FF4E7
:1006F0008063FB610023BB62194BBB600023FB637B
:1007000000233B620023BB614FF40033FB620123F3
:100710007B614FF000637B6040233B61114BFB60CA
:100720003B1D0E48194600F0BFFF0C48002101F0A8
:1007300011F80A481021012201F036F806488021FC
:100740000122FFF70DFE04480121FFF7D9FD5837BC
:10075000BD4680BD0004024000100140B864024064
:10076000041001401401002080B400AF064B1B6848
:10077000002B04D0044B1B68013B034A1360BD46A9
:100780005DF8047B704700BF0C01002080B483B08B
:1007900000AF7860064A7B68136000BF044B1B689B
:1007A000002BFBD10C37BD465DF8047B704700BFC2
:1007B0000C01002080B483B000AF03463960FB71A8
:1007C00097F90730002B0BDA0D49FB7903F00F0383
:1007D000043B3A68D2B21201D2B20B441A7609E055
:1007E000084997F907303A68D2B21201D2B20B44E5
:1007F00083F800230C37BD465DF8047B704700BFCB
:1008000000ED00E000E100E080B582B000AF78606C
:100810007B68B3F1807F01D3012311E00A4A7B6832
:1008200023F07F43013B53604FF0FF300F21FFF770
:10083000C1FF054B00229A60034B07221A60002378
:1008400018460837BD4680BD10E000E080B500AF17
:1008500000F0B2FDFFF7C2FEFFF796FEFFF7F0FED5
:1008600000F03AFC1C4B1B681C4AA2FB03239B09AB
:100870001846FFF7C9FF0346002B00D0FEE71848D3
:100880004FF4006100F034FD47F6FF7000F02EF8E1
:1008900000BF144B1B78002BFBD111484FF40061B3
:1008A00000F034FD00BF1048012100F007FD0346B1
:1008B000002BF8D00B4B1B78012B05D108484FF4C7
:1008C000006100F015FD04E005484FF4006100F000
:1008D0001DFD00F037FCE5E7EC000020D34D621071
:1008E00000000240040100200008024080B582B0F0
:1008F00000AF0346FB80074B01221A700648002117
:10090000FFF7FEFCFB88184600F008F80837BD46E4
:1009100080BD00BF040100200048004080B582B0C7
:1009200000AF0346FB80FB8848F28112934208D057
:1009300048F20222934208D047F6FF72934208D051
:100940000BE00A4800F084F809E0094800F080F85C
:1009500005E0064800F010F801E000F089FA0548CB
:100960000121FFF7CDFC0837BD4680BD08000020FF
:10097000640000200048004080B584B000AF78607B
:10098000314BFA221A70304BAF225A702E4B002294
:100990009A702D4B0022DA702B4B24221A712A4BAD
:1009A00002225A717B6802331B88DAB2264B9A7195
:1009B0000123FB600FE0FB685B000533FA68D1B2EE
:1009C000214AD154FB6803335B001F4A0121D154F3
:1009D000FB680133FB607B6802331B881AB2FB683B
:1009E0009A42E8DA0023FB720223FB6009E0164A10
:1009F000FB6813441A78FB7A5340FB72FB6801339F
:100A0000FB607B6802331B881BB203335A00FB6810
:100A10009A42ECDA7B6802331B881BB25B00073317
:100A20000949FA7ACA547B6802331B88DBB25B003F
:100A3000DBB20733DAB2054B1A70786800F000FABF
:100A40001037BD4680BD00BF1401002010010020FA
:100A500080B584B000AF78607E4BFA221A707D4B6F
:100A6000AF225A707B4B00229A707A4B0022DA70C8
:100A7000784B1E221A71774B05225A717B6802331C
:100A80001B88DAB2734B9A710023FB8100237B73BE
:100A9000714B1B781A467B681B881BB201339A4244
:100AA00080F2B6816D4B1B78002B40F0CF80002385
:100AB000FB8174E0FA8913469B0013440733FA89DB
:100AC0000232520079680A441288D1B2614AD15484
:100AD000FA8913469B00134408335F4A12780132A7
:100AE00079680231098809B2023101FB02F1FA8901
:100AF00002320A44520079680A441288D1B2554A37
:100B0000D154FA8913469B0013440933524A127890
:100B1000013279680231098809B2023101FB02F120
:100B2000FA8902320A44520079680A44128812B2E1
:100B3000121292B2D1B2474AD154FA8913469B009D
:100B400013440A33444A1278013279680231098821
:100B500009B2023101FB02F2520079680A4412889C
:100B6000D1B23C4AD154FA8913469B0013440B334B
:100B7000394A1278013279680231098809B20231A2
:100B800001FB02F2520079680A44128812B2121272
:100B900092B2D1B22F4AD154FB890133FB81FA8939
:100BA0007B6802331B881BB29A4283DB00237B7372
:100BB0000223FB810AE0FB89264AD35CDBB21A469A
:100BC0007B7B53407B73FB890133FB81F9897B6815
:100BD00002331B881AB213469B0013440633994212
:100BE000E9DD7B6802331B881AB213469B0013446D
:100BF0000733797B174AD1547B6802331B88DBB2F9
:100C00001A4692001344DBB20733DAB2144B1A705F
:100C1000786800F015F9134B00221A600E4B1B7810
:100C200001337A680232128812B2023202FB03F3F5
:100C30005B007A6813441B881BB20B4A1360074B96
:100C40001B780133DAB2054B1A70E7E00023FB8111
:100C500083E000BF140100200501002006010020F0
:100C6000100100200001002000000020FA89134636
:100C70009B0013440733FA890232520079680A4410
:100C80001288D1B2674AD154FA8913469B001344A3
:100C90000833654A1278013279680231098809B24D
:100CA000023101FB02F1FA8902320A4452007968EA
:100CB0000A441288D1B25B4AD154FA8913469B0088
:100CC00013440933584A127801327968023109888D
:100CD00009B2023101FB02F1FA8902320A445200E0
:100CE00079680A44128812B2121292B2D1B24D4AF5
:100CF000D154FA8913469B0013440A334A4A1278A6
:100D0000013279680231098809B2023101FB02F22D
:100D10000132520079680A441288D1B2414AD15452
:100D2000FA8913469B0013440B333F4A1278013271
:100D300079680231098809B2023101FB02F20132FD
:100D4000520079680A44128812B2121292B2D1B2D9
:100D5000344AD154FB890133FB81FA897B68023321
:100D60001B881BB29A4281DB00237B730223FB8129
:100D70000AE0FB892B4AD35CDBB21A467B7B5340EB
:100D80007B73FB890133FB81F9897B6802331B8804
:100D90001AB213469B00134406339942E9DD7B687F
:100DA00002331B881AB213469B0013440733797B26
:100DB0001C4AD1547B6802331B88DBB21A4692006E
:100DC0001344DBB20733DAB2184B1A70786800F0BC
:100DD00037F8154B1B780133DAB2134B1A70144BEA
:100DE00000221A70134B00221A600F4B1B7801333C
:100DF0007A680232128812B2023202FB03F3013324
:100E00005B007A6813441B881BB20B4A136005E031
:100E1000054B00221A70084B084A1A601037BD466D
:100E200080BD00BF1401002005010020100100203A
:100E3000060100200001002000000020809698009C
:100E400080B582B000AF7860074B1B789BB201334E
:100E50009BB20648194600F099FC0448012100F0B5
:100E600079FC0837BD4680BD10010020B8640240FF
:100E700080B500AF09484FF4006100F039FA4FF433
:100E8000FA70FFF783FC05484FF4006100F03EFA6A
:100E90004FF4FA70FFF77AFCECE700BF0000024065
:100EA00080B500AF0748084900F0B8FC0346002BA6
:100EB00006D0064B00221A700248034900F006FDD6
:100EC00080BD00BFB86402400080002804010020FB
:100ED00080B489B000AF78600023BB6100237B61E0
:100EE0000023FB6102233B610023FB600223BB6004
:100EF000484B9B6803F00C03BB61BB69042B07D014
:100F0000082B09D0002B3FD17B68434A1A603FE091
:100F10007B68424A1A603BE03E4B5B6803F4800307
:100F20009B0DFB603B4B5B6803F03F03BB60FB68C2
:100F3000002B0DD0394ABB68B2FBF3F2354B596830
:100F400047F6C0730B409B0903FB02F3FB610CE007
:100F5000314ABB68B2FBF3F22E4B596847F6C073B7
:100F60000B409B0903FB02F3FB612A4B5B6803F414
:100F700040331B0C01335B003B61FA693B69B2FBF8
:100F8000F3F27B681A6003E07B68234A1A6000BFB3
:100F9000204B9B6803F0F003BB61BB691B09BB617D
:100FA0001F4ABB6913441B78DBB27B617B681A68FC
:100FB0007B69DA407B685A60164B9B6803F4E05308
:100FC000BB61BB699B0ABB61154ABB6913441B78B3
:100FD000DBB27B617B685A687B69DA407B689A6028
:100FE0000C4B9B6803F46043BB61BB695B0BBB614B
:100FF0000B4ABB6913441B78DBB27B617B685A6880
:101000007B69DA407B68DA602437BD465DF8047B93
:10101000704700BF003802400024F40000366E0123
:10102000DC00002080B483B000AF78600B46FB701A
:10103000FB78002B06D00949084B1A6B7B681343D9
:101040000B6306E00549054B1A6B7B68DB431340D5
:101050000B630C37BD465DF8047B704700380240D7
:1010600080B483B000AF78600B46FB70FB78002B38
:1010700006D00949084B1A6C7B6813430B6406E0E1
:101080000549054B1A6C7B68DB4313400B640C3736
:10109000BD465DF8047B70470038024080B483B0E1
:1010A00000AF78600B46FB70FB78002B06D0094937
:1010B000084B5A6C7B6813434B6406E00549054BAB
:1010C0005A6C7B68DB4313404B640C37BD465DF8BC
:1010D000047B70470038024080B584B000AF022026
:1010E0000121FFF7BDFF1D233B7000237B70002310
:1010F000BB700123FB703B46184600F097FC0923A8
:10110000BB6042F2CF03BB800023BB810023FB8086
:101110000023BB733B1D0A48194600F0E7FC084852
:10112000012100F091FD06480121012200F068FD37
:101130000348012100F044FD1037BD4680BD00BFCB
:101140000004004080B500AF0A4B1B680A4A934276
:1011500004D148F28110FFF7C9FB09E0054B1A687A
:10116000064B1B689A4203D848F28110FFF7BEFB7A
:1011700080BD00BF00000020809698000001002084
:1011800080B500AF044B1B680133034A136003486A
:10119000012100F059FD80BD000100200004004045
:1011A00080B487B000AF7860396000237B61002392
:1011B0003B610023FB6000237B6176E07B690122B9
:1011C00002FA03F33B613B681A683B691340FB601A
:1011D000FA683B699A4265D17B681A687B695B0053
:1011E000194603238B40DB431A407B681A607B68F7
:1011F0001A683B681B7919467B695B0001FA03F3A7
:101200001A437B681A603B681B79012B03D03B684B
:101210001B79022B2ED17B689A687B695B0019468B
:1012200003238B40DB431A407B689A607B689A6893
:101230003B685B7919467B695B0001FA03F31A434B
:101240007B689A607B685A687B699BB21946012368
:101250008B40DB431A407B685A607B685B683A6866
:10126000927911467A6992B201FA02F292B21A4365
:101270007B685A607B68DA687B699BB25B000321FC
:1012800001FA03F3DB431A407B68DA607B68DA68B3
:101290003B68DB7919467B695B0001FA03F31A436B
:1012A0007B68DA607B6901337B617B690F2B85D9B1
:1012B0001C37BD465DF8047B704700BF80B485B025
:1012C00000AF78600B467B800023FB737B681A6954
:1012D0007B881340002B02D00123FB7301E0002325
:1012E000FB73FB7B18461437BD465DF8047B7047E3
:1012F00080B483B000AF78600B467B807B687A88CF
:101300001A830C37BD465DF8047B704780B483B008
:1013100000AF78600B467B807B687A885A830C37F5
:10132000BD465DF8047B704780B485B000AF78603F
:101330000B467B8013467B700023FB600023BB6061
:101340007B787A8802F0070292009340FB607B88EA
:10135000DB089BB218467B88DB089BB21A467B6889
:10136000083253F822207B8803F007039B001946BC
:101370000F238B40DB4302EA03017B6800F1080284
:1013800043F822107B88DB089BB21A467B68083240
:1013900053F82220FB681343BB607B88DB089BB2B9
:1013A0001A467B680832B96843F822101437BD46E4
:1013B0005DF8047B704700BF80B500AF114A114B48
:1013C0001B6843F0010313600E4B00229A600D4A24
:1013D0000C4B1B6823F0847323F480331360094B98
:1013E000094A5A60074A074B1B6823F4802313609D
:1013F000044B0022DA6000F00BF8044B4FF000625F
:101400009A6080BD003802401030002400ED00E0FA
:1014100080B483B000AF00237B6000233B60354A7B
:10142000344B1B6843F480331360324B1B6803F466
:1014300000333B607B6801337B603B68002B03D14A
:101440007B68B3F5A06FF0D12A4B1B6803F400331F
:10145000002B02D001233B6001E000233B603B688E
:10146000012B42D1234A234B1B6C43F0805313645E
:10147000214A214B1B6843F4804313601D4A1D4BD6
:101480009B6893601B4A1B4B9B6843F4004393602B
:10149000184A184B9B6843F4A0539360154B174AA6
:1014A0005A60144A134B1B6843F08073136000BFEB
:1014B000104B1B6803F00073002BF9D0104B40F267
:1014C00005621A600B4A0B4B9B6823F00303936081
:1014D000084A084B9B6843F00203936000BF054B2A
:1014E0009B6803F00C03082BF9D10C37BD465DF85F
:1014F000047B7047003802400070004018544007D9
:10150000003C024080B483B000AF78607B681B6809
:1015100023F001027B681A607B6800221A607B68F6
:1015200000225A607B6800229A607B680022DA60A1
:101530007B6800221A617B6821225A617B68454AD8
:10154000934203D1444B3D229A607EE07B68434A3C
:10155000934204D1404B4FF474629A6075E07B680B
:101560003F4A934204D13C4B4FF474129A606CE0B2
:101570007B683C4A934204D1374B4FF074629A60C7
:1015800063E07B68384A934203D1334B374ADA60D1
:101590005BE07B68364A934203D12F4B354ADA60D1
:1015A00053E07B68344A934203D12B4B334ADA60D1
:1015B0004BE07B68324A934204D1274B4FF03D52B7
:1015C000DA6042E07B682F4A934203D12E4B3D22E2
:1015D0009A603AE07B682D4A934204D12A4B4FF43B
:1015E00074629A6031E07B68294A934204D1264BA9
:1015F0004FF474129A6028E07B68264A934204D123
:10160000214B4FF074629A601FE07B68224A93423C
:1016100003D11D4B154ADA6017E07B681F4A9342DD
:1016200003D1194B134ADA600FE07B681C4A9342DE
:1016300003D1154B114ADA6007E07B68194A9342DF
:1016400003D1114B4FF03D52DA600C37BD465DF8C7
:10165000047B704710600240006002402860024036
:101660004060024058600240706002403D0000202F
:1016700088600240400F0020A060024000003D2032
:10168000B8600240106402400064024028640240D6
:101690004064024058640240706402408864024022
:1016A000A0640240B864024080B485B000AF7860A6
:1016B00039600023FB607B681B68FB60FA68244B81
:1016C0001340FB603B681A683B68DB681A433B6861
:1016D0005B691A433B689B691A433B68DB691A43A1
:1016E0003B681B6A1A433B685B6A1A433B689B6A08
:1016F0001A433B685B6B1A433B689B6B1343FA6866
:101700001343FB607B68FA681A607B685B69FB6067
:10171000FB6823F00703FB603B68DA6A3B681B6BDE
:101720001343FA681343FB607B68FA685A613B68AD
:101730001A697B685A603B685A687B689A603B68A4
:101740009A687B68DA601437BD465DF8047B7047A1
:101750003F801CF080B483B000AF78600B46FB7014
:10176000FB78002B06D07B681B6843F001027B6886
:101770001A6005E07B681B6823F001027B681A6031
:101780000C37BD465DF8047B704700BF80B483B062
:1017900000AF78600B467B807A887B685A600C3794
:1017A000BD465DF8047B704780B485B000AFF8603B
:1017B000B9601346FB71BB6803F08003002B0FD0A8
:1017C000FB79002B06D0FB685B6943F08002FB6865
:1017D0005A6105E0FB685B6923F08002FB685A618F
:1017E000BB68802B14D0FB79002B08D0FB681A68EB
:1017F000BB6803F01E031A43FB681A6008E0FB682D
:101800001A68BB6803F01E03DB431A40FB681A60CA
:101810001437BD465DF8047B704700BF80B487B0C5
:1018200000AF786039600023FB750023FB60002364
:10183000BB607B68224A934202D8224B3B6101E0A5
:10184000214B3B613B6823F0F02323F0C313002BB3
:101850000AD03B68DB0A03F01E03FB607B681A6852
:10186000FB681340BB6004E07B685B6903F08003A6
:10187000BB603B6803F00053002B03D03B695B68FF
:10188000FB6002E03B691B68FB60FB6823F0F02310
:1018900023F08213FB60FA683B681340002B05D0ED
:1018A000BB68002B02D00123FB7501E00023FB7510
:1018B000FB7D18461C37BD465DF8047B704700BFB2
:1018C0000F640240006002400064024080B485B0B2
:1018D00000AF786039607B68104A934202D8104BA1
:1018E000FB6001E00F4BFB603B6803F00053002BF3
:1018F00007D03B6823F0F02323F08213FA68D3600B
:1019000006E03B6823F0F02323F08213FA6893602B
:101910001437BD465DF8047B704700BF0F6402407A
:10192000006002400064024080B500AF02484FF4FE
:101930000061FFF7DDFC80BD0000024080B582B091
:1019400000AF0023FB80334840F22551FEF774FDC1
:101950000346002B5BD02F4840F225510022FEF7B2
:1019600023FD2C4840F22551FEF7C2FD2948FEF721
:10197000E7FC0346DBB2FB80FB8803F08003002B0F
:1019800008D0254B00221A80FB881B029AB2224BFA
:101990001A802CE0FB8803F08003002B03D01F4B40
:1019A0001B88002B15D01C4B1A88FB8853409AB219
:1019B000194B1A80184B1B8883F080039AB2164B80
:1019C0001A80154B1A88154B1A80154B00221A7075
:1019D0000DE0144B1A88114B1A80104B1A880E4BCD
:1019E0001A800F4B1B780133DAB20D4B1A700C4B77
:1019F0001B78632B05D90C484FF40061FFF778FC86
:101A0000F9E7044840F225510122FEF7CDFC0837E2
:101A1000BD4680BD004800400801002004000020B1
:101A20000A010020060000200000024080B485B0BA
:101A300000AF78600023FB730023BB730F237B731D
:101A40007B68DB78002B38D0264BDB68DB4303F464
:101A5000E0631B0AFB73FB7BC3F10403BB737A7B5C
:101A6000FB7B42FA03F37B737B685B781A46BB7B94
:101A700002FA03F3FB737B689A787B7B1340DAB23C
:101A8000FB7B1343FB73FB7B1B01FB73164A7B68D9
:101A90001B781344FA7B83F80023134A7B681B7876
:101AA0005B09DBB218467B681B7803F01F0301213A
:101AB00001FA03F342F820300FE00B497B681B78F2
:101AC0005B09DBB218467B681B7803F01F03012219
:101AD0009A4000F1200341F823201437BD465DF8F9
:101AE000047B704700ED00E000E100E080B485B0C9
:101AF00000AF786039600023FB817B681B88FB8125
:101B00007B68284A934213D07B68274A93420FD0C0
:101B10007B68B3F1804F0BD07B68244A934207D097
:101B20007B68234A934203D07B68224A934208D1C0
:101B3000FB8923F07003FB813B685A88FB891343C0
:101B4000FB817B681C4A93420CD07B681B4A934202
:101B500008D0FB8923F44073FB813B681A89FB8919
:101B60001343FB817B68FA891A803B685A687B685B
:101B7000DA623B681A887B681A857B68094A934257
:101B800003D07B68084A934204D13B689B7A9AB29F
:101B90007B681A867B6801229A821437BD465DF8FD
:101BA000047B704700000140000401400004004035
:101BB00000080040000C00400010004000140040ED
:101BC00080B483B000AF78600B46FB70FB78002BCD
:101BD00008D07B681B889BB243F001039AB27B68F4
:101BE0001A8007E07B681B889BB223F001039AB23E
:101BF0007B681A800C37BD465DF8047B704700BFD8
:101C000080B483B000AF78600B467B8013467B7056
:101C10007B78002B08D07B689B899AB27B88134322
:101C20009AB27B689A8109E07B689B899AB27B882B
:101C3000DB439BB213409AB27B689A810C37BD4656
:101C40005DF8047B704700BF80B483B000AF78605C
:101C50000B467B807B88DB439AB27B681A820C3709
:081C6000BD465DF8047B7047EE
:101C6800809698008181818100000D0001000200AA
:101C780003000400050006000700080009000A0028
:101C88000B000C000D0000000A000CFE2C01CEFF1A
:101C9800CEFF320032009600D4FECEFF24FACEFFEB
:101CA800CEFF640000000000F40100000000000006
:101CB8000000000032006400000018FCCEFFCEFFD8
:101CC800CEFF000002000D00010002000300040026
:101CD800050006000700080009000A000B000C00B8
:101CE8000D0064000A0000002C01CEFFCEFF320078
:101CF80032009600D4FECEFF24FACEFFCEFF640059
:101D0800140064006AFF00000000000000000000EA
:101D18003200640000000000CEFFCEFFCEFF32008C
:101D2800010006FF64006400640000000000320047
:101D380050009600F40132003200B0FF00000000AD
:101D4800010203040102030406070809007A030AD2
:101D58000000000000000000010203040607080953
:0400000508000000EF
:00000001FF
