:020000040800F2
:10000000280800201D050008750500087505000872
:10001000750500087505000875050008000000005A
:10002000000000000000000000000000750500084E
:100030007505000800000000750500082507000888
:1000400075050008750500087505000875050008A8
:100050007505000875050008750500087505000898
:100060007505000875050008750500087505000888
:100070007505000875050008750500087505000878
:100080007505000875050008750500087505000868
:100090007505000875050008750500087505000858
:1000A0007505000875050008750500087505000848
:1000B0007505000875050008750500087505000838
:1000C0007505000875050008750500087505000828
:1000D000750500087505000875050008CD0E0008B7
:1000E0007505000875050008750500087505000808
:1000F00075050008750500087505000875050008F8
:1001000075050008750500087505000875050008E7
:1001100075050008750500087505000875050008D7
:1001200075050008750500087505000875050008C7
:1001300075050008750500087505000875050008B7
:1001400075050008750500087505000875050008A7
:100150007505000875050008750500087505000897
:100160007505000875050008750500087505000887
:100170007505000875050008750500087505000877
:10018000750500087505000880B58AB000AF786075
:10019000396000237B6200233B620023FB61002364
:1001A000BB617B681B8A9BB27B627B6A23F44053F2
:1001B0007B623B68DB881A467B6A13437B627B6AFF
:1001C0009AB27B681A827B689B899BB27B627B6A4E
:1001D00023F4B05323F00C037B623B689A883B689E
:1001E0001B8913439AB23B685B8913439BB21A463F
:1001F0007B6A13437B627B6A9AB27B689A817B68D5
:100200009B8A9BB27B627B6A23F440737B623B6870
:100210009B891A467B6A13437B627B6A9AB27B682E
:100220009A8207F10803184600F03AFB7B68314ACE
:10023000934203D07B68304A934202D17B693B6290
:1002400001E03B693B627B689B899BB29BB21BB21E
:10025000002B0CDA3A6A13469B0013449A001A44A6
:100260003B681B685B00B2FBF3F3FB610BE03A6A8F
:1002700013469B0013449A001A443B681B689B007A
:10028000B2FBF3F3FB61FB691C4AA2FB03235B098E
:100290001B017B627B6A1B09642202FB03F3FA6980
:1002A000D31ABB617B689B899BB29BB21BB2002BAC
:1002B0000CDABB69DB003233104AA2FB03235B0973
:1002C00003F007037A6A13437B620BE0BB691B01EF
:1002D00032330A4AA2FB03235B0903F00F037A6A55
:1002E00013437B627B6A9AB27B681A812837BD46CA
:1002F00080BD00BF00100140001401401F85EB517C
:1003000080B483B000AF78600B46FB70FB78002BA5
:1003100008D07B689B899BB243F400539AB27B68F8
:100320009A8107E07B689B899BB223F400539AB2C1
:100330007B689A810C37BD465DF8047B704700BF2F
:1003400080B483B000AF78600B467B807B88C3F3BA
:1003500008039AB27B689A800C37BD465DF8047B2F
:10036000704700BF80B487B000AF78600B467B80D9
:1003700013467B7000233B610023FB600023BB60BE
:1003800000237B617B687B617B88DBB25B09DBB22E
:100390003B617B8803F01F03FB60FB68012202FACC
:1003A00003F3BB603B69012B03D17B690C337B6199
:1003B00009E03B69022B03D17B6910337B6102E0CA
:1003C0007B6914337B617B78002B06D07B697A696B
:1003D0001168BA680A431A6006E07B697A69116895
:1003E000BA68D2430A401A601C37BD465DF8047BE8
:1003F000704700BF80B485B000AF78600B467B804B
:100400000023FB737B681B889AB27B8813409BB2E6
:10041000002B02D00123FB7301E00023FB73FB7B65
:1004200018461437BD465DF8047B704780B487B02A
:1004300000AF78600B467B800023FB6000237B616C
:100440000023BB600023FB747B88DBB25B09DBB25B
:10045000BB607B8803F01F037B617B69012202FA8A
:1004600003F37B61BB68012B07D17B689B899BB23F
:100470001A467B6913407B6111E0BB68022B07D1F0
:100480007B681B8A9BB21A467B6913407B6106E03E
:100490007B689B8A9BB21A467B6913407B617B8891
:1004A0001B0A9BB2FB60FB68012202FA03F3FB60AC
:1004B0007B681B889BB21A46FB681340FB607B6914
:1004C000002B05D0FB68002B02D00123FB7401E058
:1004D0000023FB74FB7C18461C37BD465DF8047B8B
:1004E000704700BF80B485B000AF78600B467B805A
:1004F0000023FB810023BB817B881B0AFB81FB89D6
:10050000012202FA03F3BB81BB89DB439AB27B6809
:100510001A801437BD465DF8047B704780B582B001
:1005200000AF0F4B7B600F4B3B6007E03B681A1D31
:100530003A607A68111D796012681A603B680A4A4D
:100540009342F3D309480A494FF000028842B8BFEA
:1005500040F8042BFADB00F057F90837BD4680BDA0
:10056000240F0008000000202400002024000020A8
:100570002800002080B400AFFEE700BF80B582B045
:1005800000AF27233B710023BB710123FB713B1D8F
:10059000184600F03BFC0837BD4680BD80B582B0F0
:1005A00000AF0120012100F025FA4FF400633B6009
:1005B00001233B7102237B710023BB710023FB717C
:1005C0003B460D48194600F06FFA0420012100F067
:1005D00011FA01233B6000233B7102237B7100234E
:1005E000BB710223FB713B460448194600F05CFADC
:1005F0000837BD4680BD00BF000002400008024031
:1006000080B586B000AF0220012100F0F3F9102080
:10061000012100F02BFAC0233B6102233B7500232C
:10062000BB750023FB7502237B7507F11003164889
:10063000194600F039FA14480621072200F0F8FAAA
:1006400011480721072200F0F3FA4FF4E1333B6031
:100650000023BB800023FB8000233B810023BB8160
:100660000C237B813B4609481946FFF78DFD07485F
:1006700040F225510122FFF775FE04480121FFF7E2
:100680003FFE1837BD4680BD000402400010014007
:1006900080B586B000AF0420012100F0ABF94FF423
:1006A0008020012100F0C4F94FF440633B61022334
:1006B0003B750023BB750023FB7502237B7507F197
:1006C00010031648194600F0EFF914480A210722D2
:1006D00000F0AEFA11480B21072200F0A9FA4FF4FE
:1006E000E1333B600023BB800023FB8000233B8180
:1006F0000023BB810C237B813B4609481946FFF749
:1007000043FD074840F225510122FFF72BFE044824
:100710000121FFF7F5FD1837BD4680BD00080240F6
:100720000048004080B400AF064B1B68002B04D08B
:10073000044B1B68013B034A1360BD465DF8047B14
:10074000704700BF2400002080B483B000AF786001
:10075000064A7B68136000BF044B1B68002BFBD16B
:100760000C37BD465DF8047B704700BF24000020B5
:1007700080B483B000AF03463960FB7197F907304E
:10078000002B0BDA0D49FB7903F00F03043B3A68A9
:10079000D2B21201D2B20B441A7609E0084997F995
:1007A00007303A68D2B21201D2B20B4483F8002368
:1007B0000C37BD465DF8047B704700BF00ED00E0DC
:1007C00000E100E080B582B000AF78607B68B3F1F3
:1007D000807F01D3012311E00A4A7B6823F07F4325
:1007E000013B53604FF0FF300F21FFF7C1FF054B76
:1007F00000229A60034B07221A600023184608372C
:10080000BD4680BD10E000E080B500AF00F058FAB2
:10081000FFF7C4FEFFF7B2FEFFF7F2FEFFF738FF67
:100820000D4B1B680D4AA2FB03239B091846FFF7DB
:10083000C9FF0346002B00D0FEE700BF0848012196
:1008400000F0C0F90346002BF8D000F00BF84FF48D
:10085000FA70FFF779FFF0E710000020D34D621027
:100860000008024080B500AF00BF0C488021FFF7B0
:10087000C1FD0346002BF8D008488121FFF760FD39
:1008800000BF06488021FFF7B5FD0346002BF8D0D6
:1008900002480121FFF754FD80BD00BF0010014058
:1008A00080B489B000AF78600023BB6100237B6116
:1008B0000023FB6102233B610023FB600223BB603A
:1008C000484B9B6803F00C03BB61BB69042B07D04A
:1008D000082B09D0002B3FD17B68434A1A603FE0C8
:1008E0007B68424A1A603BE03E4B5B6803F480033E
:1008F0009B0DFB603B4B5B6803F03F03BB60FB68F9
:10090000002B0DD0394ABB68B2FBF3F2354B596866
:1009100047F6C0730B409B0903FB02F3FB610CE03D
:10092000314ABB68B2FBF3F22E4B596847F6C073ED
:100930000B409B0903FB02F3FB612A4B5B6803F44A
:1009400040331B0C01335B003B61FA693B69B2FB2E
:10095000F3F27B681A6003E07B68234A1A6000BFE9
:10096000204B9B6803F0F003BB61BB691B09BB61B3
:100970001F4ABB6913441B78DBB27B617B681A6832
:100980007B69DA407B685A60164B9B6803F4E0533E
:10099000BB61BB699B0ABB61154ABB6913441B78E9
:1009A000DBB27B617B685A687B69DA407B689A605E
:1009B0000C4B9B6803F46043BB61BB695B0BBB6181
:1009C0000B4ABB6913441B78DBB27B617B685A68B6
:1009D0007B69DA407B68DA602437BD465DF8047BCA
:1009E000704700BF003802400024F40000366E015A
:1009F0000000002080B483B000AF78600B46FB702D
:100A0000FB78002B06D00949084B1A6B7B6813430F
:100A10000B6306E00549054B1A6B7B68DB4313400B
:100A20000B630C37BD465DF8047B7047003802400D
:100A300080B483B000AF78600B46FB70FB78002B6E
:100A400006D00949084B1A6C7B6813430B6406E017
:100A50000549054B1A6C7B68DB4313400B640C376C
:100A6000BD465DF8047B70470038024080B483B017
:100A700000AF78600B46FB70FB78002B06D009496D
:100A8000084B5A6C7B6813434B6406E00549054BE1
:100A90005A6C7B68DB4313404B640C37BD465DF8F2
:100AA000047B70470038024080B487B000AF7860A4
:100AB000396000237B6100233B610023FB6000233E
:100AC0007B6176E07B69012202FA03F33B613B68BC
:100AD0001A683B691340FB60FA683B699A4265D12A
:100AE0007B681A687B695B00194603238B40DB43F4
:100AF0001A407B681A607B681A683B681B79194644
:100B00007B695B0001FA03F31A437B681A603B6858
:100B10001B79012B03D03B681B79022B2ED17B68FC
:100B20009A687B695B00194603238B40DB431A40BC
:100B30007B689A607B689A683B685B7919467B6939
:100B40005B0001FA03F31A437B689A607B685A687A
:100B50007B699BB2194601238B40DB431A407B68BB
:100B60005A607B685B683A68927911467A6992B2FA
:100B700001FA02F292B21A437B685A607B68DA6823
:100B80007B699BB25B00032101FA03F3DB431A404C
:100B90007B68DA607B68DA683B68DB7919467B69D9
:100BA0005B0001FA03F31A437B68DA607B69013367
:100BB0007B617B690F2B85D91C37BD465DF8047BB3
:100BC000704700BF80B485B000AF78600B467B8073
:100BD0000023FB737B681A697B881340002B02D0CB
:100BE0000123FB7301E00023FB73FB7B18461437E2
:100BF000BD465DF8047B704780B483B000AF786079
:100C00000B467B807B687A881A830C37BD465DF87B
:100C1000047B704780B483B000AF78600B467B8064
:100C20007B687A885A830C37BD465DF8047B704731
:100C300080B485B000AF78600B467B8013467B7034
:100C40000023FB600023BB607B787A8802F00702F8
:100C500092009340FB607B88DB089BB218467B8840
:100C6000DB089BB21A467B68083253F822207B8847
:100C700003F007039B0019460F238B40DB4302EA76
:100C800003017B6800F1080243F822107B88DB082F
:100C90009BB21A467B68083253F82220FB68134344
:100CA000BB607B88DB089BB21A467B680832B96858
:100CB00043F822101437BD465DF8047B704700BF2F
:100CC00080B500AF114A114B1B6843F0010313605C
:100CD0000E4B00229A600D4A0C4B1B6823F0847364
:100CE00023F480331360094B094A5A60074A074BC3
:100CF0001B6823F480231360044B0022DA6000F0A9
:100D00000BF8044B4FF000629A6080BD003802403F
:100D10001030002400ED00E080B483B000AF002369
:100D20007B6000233B60354A344B1B6843F48033BF
:100D30001360324B1B6803F400333B607B68013364
:100D40007B603B68002B03D17B68B3F5A06FF0D1CB
:100D50002A4B1B6803F40033002B02D001233B60B5
:100D600001E000233B603B68012B42D1234A234B27
:100D70001B6C43F080531364214A214B1B6843F4DE
:100D8000804313601D4A1D4B9B6893601B4A1B4B9D
:100D90009B6843F400439360184A184B9B6843F4E4
:100DA000A0539360154B174A5A60144A134B1B68A3
:100DB00043F08073136000BF104B1B6803F0007397
:100DC000002BF9D0104B40F205621A600B4A0B4B16
:100DD0009B6823F003039360084A084B9B6843F029
:100DE0000203936000BF054B9B6803F00C03082BC4
:100DF000F9D10C37BD465DF8047B704700380240DE
:100E00000070004018544007003C024080B485B098
:100E100000AF78600023FB730023BB730F237B7349
:100E20007B68DB78002B38D0264BDB68DB4303F490
:100E3000E0631B0AFB73FB7BC3F10403BB737A7B88
:100E4000FB7B42FA03F37B737B685B781A46BB7BC0
:100E500002FA03F3FB737B689A787B7B1340DAB268
:100E6000FB7B1343FB73FB7B1B01FB73164A7B6805
:100E70001B781344FA7B83F80023134A7B681B78A2
:100E80005B09DBB218467B681B7803F01F03012166
:100E900001FA03F342F820300FE00B497B681B781E
:100EA0005B09DBB218467B681B7803F01F03012245
:100EB0009A4000F1200341F823201437BD465DF825
:100EC000047B704700ED00E000E100E080B582B0F7
:100ED00000AF0023FB80114840F22551FFF7A6FA2E
:100EE0000346002B17D00D4840F22551FFF7FAFAC0
:100EF0000B484FF40061FFF77FFE4FF49670FFF749
:100F000023FC07484FF40061FFF784FE4FF496700E
:100F1000FFF71AFCECE70837BD4680BD00480040EB
:040F2000000002408B
:100F2400000000000102030401020304060708098B
:100F3400007A030A0000000000000000010203041C
:040F4400060708098B
:0400000508000000EF
:00000001FF
