:020000040800F2
:1000000048590020290500088105000881050008DD
:100010008105000881050008810500080000000036
:100020000000000000000000000000008105000842
:10003000810500080000000081050008690700082C
:100040008105000881050008810500088105000878
:100050008105000881050008810500088105000868
:100060008105000881050008810500088105000858
:10007000CD240008810500088105000881050008DD
:100080008105000881050008810500088105000838
:100090008105000881050008810500088105000828
:1000A0008105000881050008810500088105000818
:1000B00081050008A91C00088105000881050008C9
:1000C00081050008810500088105000881050008F8
:1000D000810500088105000881050008D924000871
:1000E00081050008810500088105000881050008D8
:1000F00081050008810500088105000881050008C8
:1001000081050008810500088105000881050008B7
:1001100081050008810500088105000881050008A7
:100120008105000881050008810500088105000897
:100130008105000881050008810500088105000887
:100140008105000881050008810500088105000877
:100150008105000881050008451600088105000892
:100160008105000881050008810500088105000857
:100170008105000881050008810500088105000847
:10018000810500088105000880B58AB000AF78605D
:10019000396000237B6200233B620023FB61002364
:1001A000BB617B681B8A9BB27B627B6A23F44053F2
:1001B0007B623B68DB881A467B6A13437B627B6AFF
:1001C0009AB27B681A827B689B899BB27B627B6A4E
:1001D00023F4B05323F00C037B623B689A883B689E
:1001E0001B8913439AB23B685B8913439BB21A463F
:1001F0007B6A13437B627B6A9AB27B689A817B68D5
:100200009B8A9BB27B627B6A23F440737B623B6870
:100210009B891A467B6A13437B627B6A9AB27B682E
:100220009A8207F10803184601F01EFA7B68314AEA
:10023000934203D07B68304A934202D17B693B6290
:1002400001E03B693B627B689B899BB29BB21BB21E
:10025000002B0CDA3A6A13469B0013449A001A44A6
:100260003B681B685B00B2FBF3F3FB610BE03A6A8F
:1002700013469B0013449A001A443B681B689B007A
:10028000B2FBF3F3FB61FB691C4AA2FB03235B098E
:100290001B017B627B6A1B09642202FB03F3FA6980
:1002A000D31ABB617B689B899BB29BB21BB2002BAC
:1002B0000CDABB69DB003233104AA2FB03235B0973
:1002C00003F007037A6A13437B620BE0BB691B01EF
:1002D00032330A4AA2FB03235B0903F00F037A6A55
:1002E00013437B627B6A9AB27B681A812837BD46CA
:1002F00080BD00BF00100140001401401F85EB517C
:1003000080B483B000AF78600B46FB70FB78002BA5
:1003100008D07B689B899BB243F400539AB27B68F8
:100320009A8107E07B689B899BB223F400539AB2C1
:100330007B689A810C37BD465DF8047B704700BF2F
:1003400080B483B000AF78607B689B889BB2C3F3B6
:1003500008039BB218460C37BD465DF8047B704716
:1003600080B483B000AF78600B467B8013467B700F
:100370007B78002B08D07B689B8A9AB27B881343DA
:100380009AB27B689A8209E07B689B8A9AB27B88E2
:10039000DB439BB213409AB27B689A820C37BD460E
:1003A0005DF8047B704700BF80B487B000AF786011
:1003B0000B467B8013467B7000233B610023FB6070
:1003C0000023BB6000237B617B687B617B88DBB2A1
:1003D0005B09DBB23B617B8803F01F03FB60FB68BA
:1003E000012202FA03F3BB603B69012B03D17B6955
:1003F0000C337B6109E03B69022B03D17B6910332D
:100400007B6102E07B6914337B617B78002B06D033
:100410007B697A691168BA680A431A6006E07B69E9
:100420007A691168BA68D2430A401A601C37BD461F
:100430005DF8047B704700BF80B487B000AF786080
:100440000B467B800023FB6000237B610023BB60A5
:100450000023FB747B88DBB25B09DBB2BB607B886B
:1004600003F01F037B617B69012202FA03F37B61C6
:10047000BB68012B07D17B689B899BB21A467B69BD
:1004800013407B6111E0BB68022B07D17B681B8A9C
:100490009BB21A467B6913407B6106E07B689B8AAE
:1004A0009BB21A467B6913407B617B881B0A9BB217
:1004B000FB60FB68012202FA03F3FB607B681B8888
:1004C0009BB21A46FB681340FB607B69002B05D08A
:1004D000FB68002B02D00123FB7401E00023FB74B6
:1004E000FB7C18461C37BD465DF8047B704700BF97
:1004F00080B485B000AF78600B467B800023FB8121
:100500000023BB817B881B0AFB81FB89012202FA45
:1005100003F3BB81BB89DB439AB27B681A80143733
:10052000BD465DF8047B704780B582B000AF0F4BCD
:100530007B600F4B3B6007E03B681A1D3A607A68AE
:10054000111D796012681A603B680A4A9342F3D31E
:1005500009480A494FF000028842B8BF40F8042B0E
:10056000FADB00F073F90837BD4680BD2C2800087F
:1005700000000020242A0020242A002048510020C6
:1005800080B400AFFEE700BF80B582B000AF272384
:100590003B7103237B710023BB710123FB713B1D66
:1005A000184602F025F846233B7101237B71002396
:1005B000BB710123FB713B1D184602F019F8FF23A4
:1005C0003B7102237B710023BB710123FB713B1D37
:1005D000184602F00DF80837BD4680BD80B582B0E0
:1005E00000AF0120012101F0E9F84FF400633B6006
:1005F00001233B7102237B710023BB710023FB713C
:100600003B460D48194601F05FFB0420012101F033
:10061000D5F801233B6000233B7102237B7100234B
:10062000BB710223FB713B460448194601F04CFBA9
:100630000837BD4680BD00BF0000024000080240F0
:1006400080B596B000AF0220012101F0B7F810206C
:10065000012101F0EFF8C0233B65022387F85430F5
:10066000002387F85630002387F85730022387F895
:10067000553007F150033748194601F025FB35483E
:100680000621072201F0CAFB32480721072201F0A8
:10069000C5FB4FF461433B640023A7F844300023BB
:1006A000A7F846300023A7F848300023A7F84C30BD
:1006B0000C23A7F84A3007F1400327481946FFF7F3
:1006C00063FD254840F225510122FFF76DFE2348C6
:1006D00001F092FC4FF48000012101F06FF800233B
:1006E0003B6300237B630023BB6300237B624FF4E7
:1006F0008063FB610023BB62194BBB600023FB637B
:1007000000233B620023BB614FF40033FB620123F3
:100710007B614FF000637B6040233B61114BFB60CA
:100720003B1D0E48194601F039FD0C48002101F02F
:100730008BFD0A481021012201F0B0FD06488021FE
:100740000122FFF70DFE04480121FFF7D9FD5837BC
:10075000BD4680BD0004024000100140B864024064
:1007600004100140382A002080B400AF064B1B68FB
:10077000002B04D0044B1B68013B034A1360BD46A9
:100780005DF8047B704700BF302A002080B483B03E
:1007900000AF7860064A7B68136000BF044B1B689B
:1007A000002BFBD10C37BD465DF8047B704700BFC2
:1007B000302A002080B483B000AF03463960FB715B
:1007C00097F90730002B0BDA0D49FB7903F00F0383
:1007D000043B3A68D2B21201D2B20B441A7609E055
:1007E000084997F907303A68D2B21201D2B20B44E5
:1007F00083F800230C37BD465DF8047B704700BFCB
:1008000000ED00E000E100E080B582B000AF78606C
:100810007B68B3F1807F01D3012311E00A4A7B6832
:1008200023F07F43013B53604FF0FF300F21FFF770
:10083000C1FF054B00229A60034B07221A60002378
:1008400018460837BD4680BD10E000E080B500AF17
:1008500001F02CFBFFF7C2FEFFF796FEFFF7F0FE5C
:1008600001F0DCFD01F004F80D4B1B680D4AA2FB02
:1008700003239B091846FFF7C7FF0346002B00D050
:10088000FEE748F6011000F011F807484FF4006148
:1008900001F0B6FA0A20FFF779FF01F095F9FCE7BD
:1008A0000C2A0020D34D62100000024080B582B0B7
:1008B00000AF0346FB80FB88184600F003F80837BA
:1008C000BD4680BD80B582B000AF0346FB80FB888B
:1008D00048F21822934200F0338248F218229342E1
:1008E00000F3BD8048F21B02934200F0A78248F259
:1008F0001B02934259DC48F20B02934200F09782AC
:1009000048F20B02934227DC48F20602934200F0C1
:100910009C8248F2060293420EDC48F201029342A6
:1009200000F07D8148F20402934200F09F81B3F50C
:10093000004F00F0428196E248F20802934200F034
:10094000AE8148F208029342C0F2638248F20A0282
:10095000934200F0818286E248F21602934200F050
:10096000748248F2160293420FDC48F2110293425D
:1009700000F0608148F21402934200F0778148F25F
:100980000E02934200F03E826DE248F2180293425A
:1009900000F0858148F218029342C0F2418248F289
:1009A0001A02934200F058825DE248F20412934228
:1009B00000F0E98148F20412934228DC48F2310247
:1009C000934200F0458148F2310293420FDC48F235
:1009D0002402934200F0558148F22802934200F02D
:1009E000698148F22102934200F02B813BE248F2F8
:1009F0004102934200F0338148F24902934200F0F1
:100A00002E8148F23502934200F022812BE248F217
:100A10000422934200F07F8148F2042293420EDCCC
:100A2000B3F5024F00F0D58048F20122934200F066
:100A30004F8148F20812934200F0AC8113E248F271
:100A40001122934200F04B8148F21422934200F0AD
:100A5000628148F20822934200F0728103E248F674
:100A60000212934200F0CF8048F60212934254DC07
:100A7000B3F5044F00F0A381B3F5044F28DC48F22E
:100A80003122934200F0398148F2312293420FDC47
:100A900048F22422934200F0458148F228229342F2
:100AA00000F0558148F22122934200F01F81DAE1E3
:100AB00048F24122934200F0278148F249229342B2
:100AC00000F0228148F23522934200F01681CAE1FB
:100AD00048F60402934200F0C98048F604029342AB
:100AE0000FDC48F20842934200F0858148F601028B
:100AF000934200F0948048F20142934200F07481E6
:100B0000B1E1B3F5094F6BD0B3F5094F6FDC48F68F
:100B10000802934200F0C380A5E14BF20522934204
:100B200022DC4BF20422934280F203814BF2050255
:100B3000934212DC4BF20402934280F2A98048F601
:100B4000084293426BD04BF20302934200F045817E
:100B500048F60442934262D085E1A3F53043083B56
:100B6000012B00F28081ACE04BF60442934200F08E
:100B7000FC804BF6044293420FDC4BF20822934276
:100B8000C0F271814BF20922934240F3E7804BF2AD
:100B90000162934200F01A8165E14FF604429342EC
:100BA00000F0FF804FF60842934200F001814BF6BF
:100BB0000842934200F0E08055E1B0484FF40061F4
:100BC00001F010F9AE4B00221A70AE4800F0A0FA06
:100BD00050E1AB4B00221A70AB4800F099FA49E1A2
:100BE000A74B00221A70A94800F092FA42E1A348EC
:100BF0004FF4006101F004F9A14B00221A70A148E2
:100C000000F096F936E19D484FF4006101F0F8F8E4
:100C10009B4B00221A709E4800F002FA2AE19D4B7D
:100C200048F201021A80964B01221A70984800F08F
:100C30006FFA1FE1924B02221A70974800F068FA8F
:100C400018E18F4B03221A70944800F061FA11E109
:100C50008B4B04221A70924800F05AFA0AE1884B32
:100C600004221A708F4800F053FA03E1894B48F2CE
:100C700004021A80824B02221A708B4800F048FA54
:100C8000F8E07F4B03221A70884800F041FAF1E047
:100C90007B4B04221A70864800F03AFAEAE07D4B5A
:100CA00048F208021A80764B02221A70814800F03E
:100CB0002FFADFE0724B03221A707F4800F028FA07
:100CC000D8E06F4B04221A707C4800F021FAD1E082
:100CD0006B4B01221A707A4800F01AFACAE0684B8E
:100CE00002221A70774800F013FAC3E0644B032223
:100CF0001A70754800F00CFABCE0614B04221A70BF
:100D0000724800F005FAB5E05D4B04221A70704895
:100D100000F0FEF9AEE05A4B02221A706D4800F066
:100D2000F7F9A7E0564B03221A706B4800F0F0F970
:100D3000A0E0534B04221A70684800F0E9F999E0EA
:100D40004F4B02221A70664800F0E2F992E04C4BD9
:100D500003221A70634800F0DBF98BE0484B042251
:100D60001A70614800F0D4F984E0454B00221A70F3
:100D70005E4800F0CDF97DE0414B00221A705C48DE
:100D800000F0C6F976E03E4B00221A70594800F098
:100D9000BFF96FE03A4B00221A70574800F0B8F9DB
:100DA00068E0374B00221A70544800F0B1F961E056
:100DB000334B00221A70524800F0AAF95AE0304B27
:100DC00000221A704F4800F0A3F953E02C4B002288
:100DD0001A704D4800F09CF94CE0294B00221A7023
:100DE000494800F095F945E0254B00221A70474824
:100DF00000F08EF93EE0224B00221A70444800F0C9
:100E000087F937E01E4B00221A70424800F080F943
:100E100030E01B4B00221A703F4800F079F929E0BE
:100E2000174B00221A703D4800F072F922E0144B73
:100E300001221A703A4800F06BF91BE0104B0222B5
:100E40001A70384800F064F914E00D4B02221A7051
:100E5000354800F05DF90DE0094B02221A70334865
:100E600000F056F906E0064B00221A70054800F023
:100E70004FF900BF0837BD4680BD00BF00000240EB
:100E8000242A0020580D0020000E0020800E002093
:100E9000C4140020222A00206C150020BC1600205B
:100EA00060180020B01900201C1F0020182000200E
:100EB000142100205C240020582500205426002006
:100EC000501C0020F81C0020481E0020081900209B
:100ED000001B00206422002060230020BC21002091
:100EE000FC270020F82800202827002000000020F0
:100EF000280100205002002078030020C4050020B3
:100F000098060020940700203C080020280F0020AD
:100F1000A4100020340B0020F411002074120020D3
:100F2000300C0020B00C00201C130020F013002017
:100F300080B584B000AF7860344BFA221A70334B1E
:100F4000AF225A70314B00229A70304B0022DA7077
:100F50002E4B24221A712D4B02225A717B680233C8
:100F60001B88DAB2294B9A710123FB600FE0FB6802
:100F70005B000533FA68D1B2244AD154FB680333CD
:100F80005B00224A0121D154FB680133FB607B687E
:100F900002331B881AB2FB689A42E8DA0023FB721C
:100FA0000223FB6009E0194AFB6813441A78FB7AB4
:100FB0005340FB72FB680133FB607B6802331B8884
:100FC0001BB203335A00FB689A42ECDA7B680233A7
:100FD0001B881BB25B0007330C49FA7ACA547B6842
:100FE00002331B88DBB25B00DBB20733DAB2084B9B
:100FF0001A70786800F00EFB064B00221A60064B50
:10100000064A1A601037BD4680BD00BF382A00204E
:10101000342A0020282A0020082A002080969800E0
:1010200080B584B000AF7860344BFA221A70334B2D
:10103000AF225A70314B00229A70304B0022DA7086
:101040002E4B24221A712D4B02225A717B680233D7
:101050001B88DAB2294B9A710123FB600FE0FB6811
:101060005B000533FA68D1B2244AD154FB680333DC
:101070005B00224A0021D154FB680133FB607B688E
:1010800002331B881AB2FB689A42E8DA0023FB722B
:101090000223FB6009E0194AFB6813441A78FB7AC3
:1010A0005340FB72FB680133FB607B6802331B8893
:1010B0001BB203335A00FB689A42ECDA7B680233B6
:1010C0001B881BB25B0007330C49FA7ACA547B6851
:1010D00002331B88DBB25B00DBB20733DAB2084BAA
:1010E0001A70786800F096FA064B00221A60064BD8
:1010F000064A1A601037BD4680BD00BF382A00205E
:10110000342A0020282A0020082A002080969800EF
:1011100080B584B000AF78609E4BFA221A709D4B68
:10112000AF225A709B4B00229A709A4B0022DA70C1
:10113000984B1E221A71974B05225A717B68023315
:101140001B88DAB2934B9A710023FB8100237B73D7
:10115000914B1B781A467B681B881BB201339A425D
:1011600080F240828D4B1B78002B40F01F818A4B10
:101170001B7801337A680232128812B2023202FB03
:1011800003F35B007A6813441B88002B15D17B683E
:1011900002331B88DBB21A4692001344DBB20733DA
:1011A000DAB27F4B1A707D4B01221A707D4B002200
:1011B0001A607D4B00221A601AE20023FB818EE048
:1011C000FA8913469B0013440733FA89023252000E
:1011D00079680A441288D1B26E4AD154FA8913460A
:1011E0009B00134408336C4A12780132796802314B
:1011F000098809B2023101FB02F1FA8902320A447C
:10120000520079680A441288D1B27A680232128890
:1012100010B2FA89024404325200786802441288FB
:10122000D2B20A44D1B25B4AD154FA8913469B0028
:1012300013440933584A1278013279680231098817
:1012400009B2023101FB02F1FA8902320A4452006A
:1012500079680A44128811B27A680232128810B290
:10126000FA8902440432520078680244128812B2A9
:101270000A441212D1B2474AD154FA8913469B004C
:1012800013440A33444A12780132796802310988DA
:1012900009B2023101FB02F2520079680A44128855
:1012A000D1B23C4AD154FA8913469B0013440B3304
:1012B000394A1278013279680231098809B202315B
:1012C00001FB02F2520079680A44128812B212122B
:1012D00092B2D1B22F4AD154FB890133FB81FA89F2
:1012E0007B6802331B881BB29A42FFF669AF00236A
:1012F0007B730223FB810AE0FB89264AD35CDBB2C5
:101300001A467B7B53407B73FB890133FB81F98950
:101310007B6802331B881AB213469B0013440633C2
:101320009942E9DD7B6802331B881AB213469B00A1
:1013300013440733797B174AD1547B6802331B88E7
:10134000DBB21A4692001344DBB20733DAB2144B15
:101350001A70786800F05EF9104B01221A70114B78
:1013600000221A600C4B1B7801337A680232128813
:1013700012B2023202FB03F35B007A6813441B884B
:101380001AB213469B0013445B001A46064B1A60C0
:101390002EE100BF382A0020F4290020252A002051
:1013A000342A0020282A0020082A0020924B1B788B
:1013B00001337A680232128812B2023202FB03F35E
:1013C00001335B007A6813441B88002B15D17B68BE
:1013D00002331B88DBB21A4692001344DBB2073398
:1013E000DAB2864B1A70864B00221A70854B0022A7
:1013F0001A60854B00221A60EDE00023FB8190E02B
:10140000FA8913469B0013440733FA8902325200CB
:1014100079680A441288D1B27C4AD154FA891346B9
:101420009B0013440833744A127801327968023100
:10143000098809B2023101FB02F1FA8902320A4439
:10144000520079680A441288D1B27A68023212884E
:1014500010B2FA89024404325200786802441288B9
:10146000D2B20A44D1B2694AD154FA8913469B00D8
:1014700013440933604A12780132796802310988CD
:1014800009B2023101FB02F1FA8902320A44520028
:1014900079680A44128811B27A680232128810B24E
:1014A000FA8902440432520078680244128812B267
:1014B0000A441212D1B2554AD154FA8913469B00FC
:1014C00013440A334C4A1278013279680231098890
:1014D00009B2023101FB02F20132520079680A447A
:1014E0001288D1B2494AD154FA8913469B00134459
:1014F0000B33414A1278013279680231098809B206
:10150000023101FB02F20132520079680A4412886A
:1015100012B2121292B2D1B23C4AD154FB890133B9
:10152000FB81FA897B6802331B881BB29A42FFF663
:1015300067AF00237B730223FB810AE0FB89334AF8
:10154000D35CDBB21A467B7B53407B73FB89013350
:10155000FB81F9897B6802331B881AB213469B0012
:10156000134406339942E9DD7B6802331B881AB2C3
:1015700013469B0013440733797B244AD1547B687C
:1015800002331B88DBB21A4692001344DBB20733E6
:10159000DAB21A4B1A70786800F03CF8184B002247
:1015A0001A70184B00221A60134B1B7801337A68AB
:1015B0000232128812B2023202FB03F301335B00E3
:1015C0007A6813441B881AB213469B0013445B00CD
:1015D0001A460D4B1A60084B1B780133DAB2064BE2
:1015E0001A7005E0044B01221A70074B084A1A6072
:1015F0001037BD4680BD00BFF4290020342A0020EA
:10160000252A0020282A0020082A0020382A002025
:101610008096980080B582B000AF7860074B1B7849
:101620009BB201339BB20648194600F029FE0448DC
:10163000012100F009FE0837BD4680BD342A002094
:10164000B864024080B500AF0548064900F060FE6E
:101650000346002B03D00248024900F0B1FE80BDD2
:10166000B86402400080002880B489B000AF786080
:101670000023BB6100237B610023FB6102233B61EC
:101680000023FB600223BB60484B9B6803F00C0304
:10169000BB61BB69042B07D0082B09D0002B3FD1BD
:1016A0007B68434A1A603FE07B68424A1A603BE02D
:1016B0003E4B5B6803F480039B0DFB603B4B5B6818
:1016C00003F03F03BB60FB68002B0DD0394ABB68B9
:1016D000B2FBF3F2354B596847F6C0730B409B09D8
:1016E00003FB02F3FB610CE0314ABB68B2FBF3F28F
:1016F0002E4B596847F6C0730B409B0903FB02F35E
:10170000FB612A4B5B6803F440331B0C01335B0025
:101710003B61FA693B69B2FBF3F27B681A6003E054
:101720007B68234A1A6000BF204B9B6803F0F003DC
:10173000BB61BB691B09BB611F4ABB6913441B78B2
:10174000DBB27B617B681A687B69DA407B685A6030
:10175000164B9B6803F4E053BB61BB699B0ABB61FA
:10176000154ABB6913441B78DBB27B617B685A68FE
:101770007B69DA407B689A600C4B9B6803F460439A
:10178000BB61BB695B0BBB610B4ABB6913441B7834
:10179000DBB27B617B685A687B69DA407B68DA6020
:1017A0002437BD465DF8047B704700BF0038024017
:1017B0000024F40040787D01F829002080B483B033
:1017C00000AF78600B46FB70FB78002B06D0094910
:1017D000084B1A6B7B6813430B6306E00549054B06
:1017E0001A6B7B68DB4313400B630C37BD465DF817
:1017F000047B70470038024080B483B000AF78604B
:101800000B46FB70FB78002B06D00949084B1A6C7D
:101810007B6813430B6406E00549054B1A6C7B6833
:10182000DB4313400B640C37BD465DF8047B704707
:101830000038024080B483B000AF78600B46FB7084
:10184000FB78002B06D00949084B5A6C7B68134380
:101850004B6406E00549054B5A6C7B68DB4313403B
:101860004B640C37BD465DF8047B7047003802407E
:1018700080B584B000AF02200121FFF7BDFF1D231A
:101880003B7000237B700023BB700123FB703B4641
:10189000184600F0ADFE0923BB6042F2CF03BB80C7
:1018A0000023BB810023FB800023BB733B1D0A4840
:1018B000194600F0FDFE0848012100F0A7FF064888
:1018C0000121012200F07EFF0348012100F05AFFB0
:1018D0001037BD4680BD00BF0004004080B485B015
:1018E00000AF03460A46FB801346BB800023FB8102
:1018F000FB8848F21802934200F0B88048F21802C0
:1019000093421ADC48F20802934200F0AF8048F29A
:101910000802934208DC48F20102934231D048F2B7
:101920000402934275D03EE148F21102934228D05E
:1019300048F2140293426CD035E148F208229342F7
:1019400000F0128148F2082293420ADC48F2012298
:10195000934200F0B88048F20422934200F0E58000
:1019600021E148F21422934200F0DF8048F218226D
:10197000934200F0F98048F21122934200F0A380D4
:1019800011E1BB8848F60102934234D048F60102C7
:1019900093420DDC48F20402934230DB48F2050228
:1019A000934218DDA3F50043083B012B27D816E02E
:1019B00048F60542934208DC48F60442934212DAA4
:1019C00048F60142934212D019E0A3F50C43083BBC
:1019D000012B14D80BE04BF20403FB8118E04BF20F
:1019E0000803FB8114E04FF60443FB8110E04FF63F
:1019F0000843FB810CE048F21103FB8108E0FB88FF
:101A000043F02003FB81FB8923F01003FB8100BF1F
:101A1000D2E0BB8848F20502934211D048F2050299
:101A2000934204DC48F20102934209D014E048F6E4
:101A3000040293420CD048F60442934204D00BE0D7
:101A400048F23103FB8110E04BF60443FB810CE0CC
:101A500048F20403FB8108E0FB8843F02003FB818C
:101A6000FB8923F01003FB8100BFA5E0BB8848F28F
:101A70000502934211D048F20502934204DC48F279
:101A80000102934209D014E048F6080293420CD0B8
:101A900048F60842934204D00BE048F24103FB8130
:101AA00010E04BF60843FB810CE048F20803FB8191
:101AB00008E0FB8843F02003FB81FB8923F010033F
:101AC000FB8100BF78E0BB8848F20922934209DC21
:101AD00048F20822934212DAA3F50243043B012B99
:101AE00019D808E048F2016293420CD048F601226E
:101AF00093420CD00FE04BF20423FB8114E04BF235
:101B00000823FB8110E04BF20163FB810CE048F2FB
:101B10001123FB8108E0FB8843F02003FB81FB8954
:101B200023F01003FB8100BF46E0BB8848F205228A
:101B3000934207D048F60422934207D048F201228C
:101B4000934207D148F23123FB810CE048F2042391
:101B5000FB8108E0FB8843F02003FB81FB8923F035
:101B60001003FB8100BF27E0BB8848F205229342A7
:101B700007D048F60822934207D048F20122934248
:101B800007D148F24123FB810CE048F20823FB8196
:101B900008E0FB8843F02003FB81FB8923F010035E
:101BA000FB8100BF08E0FB8843F02003FB81FB8939
:101BB00023F01003FB8100BFFB8918461437BD4694
:101BC0005DF8047B704700BF80B582B000AF304B3A
:101BD0001B68304A93424DD12F4B1B78042B40D8C1
:101BE00001A252F823F000BFFD1B0008051C0008ED
:101BF000111C0008431C00084B1C0008274B1B88C5
:101C0000FB802FE0264B1B8843F01003FB8029E06C
:101C1000234B1B881A464FF6EF7313401F4A128856
:101C2000934203D11E4B1B88FB801BE01C4B1A8880
:101C30001A4B1B8810461946FFF750FE0346FB80DF
:101C400010E0164B1B88FB800CE0154B1B8823F41F
:101C5000E14323F07003FB80FB8843F01003FB801B
:101C600000E000BF0E4AFB881380FB881846FEF791
:101C70001DFE0AE0064B1A680A4B1B689A4204D8FC
:101C8000074B1B881846FEF711FE0837BD4680BD7E
:101C9000082A002080969800242A0020202A00206C
:101CA000222A0020282A002080B500AF044B1B68A0
:101CB0000133034A13600348012100F0A7FD80BDF2
:101CC000282A00200004004080B487B000AF78606C
:101CD000396000237B6100233B610023FB6000230C
:101CE0007B6176E07B69012202FA03F33B613B688A
:101CF0001A683B691340FB60FA683B699A4265D1F8
:101D00007B681A687B695B00194603238B40DB43C1
:101D10001A407B681A607B681A683B681B79194611
:101D20007B695B0001FA03F31A437B681A603B6826
:101D30001B79012B03D03B681B79022B2ED17B68CA
:101D40009A687B695B00194603238B40DB431A408A
:101D50007B689A607B689A683B685B7919467B6907
:101D60005B0001FA03F31A437B689A607B685A6848
:101D70007B699BB2194601238B40DB431A407B6889
:101D80005A607B685B683A68927911467A6992B2C8
:101D900001FA02F292B21A437B685A607B68DA68F1
:101DA0007B699BB25B00032101FA03F3DB431A401A
:101DB0007B68DA607B68DA683B68DB7919467B69A7
:101DC0005B0001FA03F31A437B68DA607B69013335
:101DD0007B617B690F2B85D91C37BD465DF8047B81
:101DE000704700BF80B483B000AF78600B467B8043
:101DF0007B687A881A830C37BD465DF8047B704790
:101E000080B483B000AF78600B467B807B687A88B3
:101E10005A830C37BD465DF8047B704780B485B0AB
:101E200000AF78600B467B8013467B700023FB601D
:101E30000023BB607B787A8802F00702920093400F
:101E4000FB607B88DB089BB218467B88DB089BB273
:101E50001A467B68083253F822207B8803F0070378
:101E60009B0019460F238B40DB4302EA03017B688A
:101E700000F1080243F822107B88DB089BB21A4667
:101E80007B68083253F82220FB681343BB607B88D1
:101E9000DB089BB21A467B680832B96843F8221007
:101EA0001437BD465DF8047B704700BF80B500AFB6
:101EB000114A114B1B6843F0010313600E4B0022C3
:101EC0009A600D4A0C4B1B6823F0847323F4803313
:101ED0001360094B094A5A60074A074B1B6823F4F1
:101EE00080231360044B0022DA6000F00BF8044BEF
:101EF0004FF000629A6080BD00380240103000242C
:101F000000ED00E080B483B000AF00237B600023CD
:101F10003B60354A344B1B6843F480331360324BCB
:101F20001B6803F400333B607B6801337B603B68D4
:101F3000002B03D17B68B3F5A06FF0D12A4B1B684F
:101F400003F40033002B02D001233B6001E00023A7
:101F50003B603B68012B42D1234A234B1B6C43F06F
:101F600080531364214A214B1B6843F48043136060
:101F70001D4A1D4B9B6893601B4A1B4B9B6843F497
:101F800000439360184A184B9B6843F4A053936036
:101F9000154B174A5A60144A134B1B6843F0807361
:101FA000136000BF104B1B6803F00073002BF9D0C7
:101FB000104B40F205621A600B4A0B4B9B6823F0F2
:101FC00003039360084A084B9B6843F00203936045
:101FD00000BF054B9B6803F00C03082BF9D10C37AD
:101FE000BD465DF8047B7047003802400070004039
:101FF00019544007003C024080B483B000AF7860C1
:102000007B681B6823F001027B681A607B680022F2
:102010001A607B6800225A607B6800229A607B68A5
:102020000022DA607B6800221A617B6821225A61F3
:102030007B68454A934203D1444B3D229A607EE03F
:102040007B68434A934204D1404B4FF474629A60D8
:1020500075E07B683F4A934204D13C4B4FF47412C5
:102060009A606CE07B683C4A934204D1374B4FF056
:1020700074629A6063E07B68384A934203D1334BC1
:10208000374ADA605BE07B68364A934203D12F4BD4
:10209000354ADA6053E07B68344A934203D12B4BD4
:1020A000334ADA604BE07B68324A934204D1274BD3
:1020B0004FF03D52DA6042E07B682F4A934203D1F1
:1020C0002E4B3D229A603AE07B682D4A934204D120
:1020D0002A4B4FF474629A6031E07B68294A93423C
:1020E00004D1264B4FF474129A6028E07B68264A8C
:1020F000934204D1214B4FF074629A601FE07B68D9
:10210000224A934203D11D4B154ADA6017E07B68DF
:102110001F4A934203D1194B134ADA600FE07B68E0
:102120001C4A934203D1154B114ADA6007E07B68E1
:10213000194A934203D1114B4FF03D52DA600C37EC
:10214000BD465DF8047B70471060024000600240AD
:1021500028600240406002405860024070600240C7
:102160003D00002088600240400F0020A060024037
:1021700000003D20B860024010640240006402404C
:102180002864024040640240586402407064024087
:1021900088640240A0640240B864024080B485B004
:1021A00000AF786039600023FB607B681B68FB60D0
:1021B000FA68244B1340FB603B681A683B68DB6895
:1021C0001A433B685B691A433B689B691A433B6847
:1021D000DB691A433B681B6A1A433B685B6A1A4314
:1021E0003B689B6A1A433B685B6B1A433B689B6B7B
:1021F0001343FA681343FB607B68FA681A607B68D4
:102200005B69FB60FB6823F00703FB603B68DA6AED
:102210003B681B6B1343FA681343FB607B68FA68E7
:102220005A613B681A697B685A603B685A687B68E8
:102230009A603B689A687B68DA601437BD465DF83F
:10224000047B70473F801CF080B483B000AF78609F
:102250000B46FB70FB78002B06D07B681B6843F0B5
:1022600001027B681A6005E07B681B6823F00102AD
:102270007B681A600C37BD465DF8047B704700BF71
:1022800080B483B000AF78600B467B807A887B682F
:102290005A600C37BD465DF8047B704780B485B04A
:1022A00000AFF860B9601346FB71BB6803F08003B0
:1022B000002B0FD0FB79002B06D0FB685B6943F045
:1022C0008002FB685A6105E0FB685B6923F08002CD
:1022D000FB685A61BB68802B14D0FB79002B08D0B7
:1022E000FB681A68BB6803F01E031A43FB681A6098
:1022F00008E0FB681A68BB6803F01E03DB431A4062
:10230000FB681A601437BD465DF8047B704700BF58
:1023100080B487B000AF786039600023FB7500237C
:10232000FB600023BB607B68224A934202D8224BA9
:102330003B6101E0214B3B613B6823F0F02323F03C
:10234000C313002B0AD03B68DB0A03F01E03FB60BB
:102350007B681A68FB681340BB6004E07B685B69BC
:1023600003F08003BB603B6803F00053002B03D0F5
:102370003B695B68FB6002E03B691B68FB60FB68D4
:1023800023F0F02323F08213FB60FA683B681340CC
:10239000002B05D0BB68002B02D00123FB7501E0A8
:1023A0000023FB75FB7D18461C37BD465DF8047B9A
:1023B000704700BF0F6402400060024000640240AA
:1023C00080B485B000AF786039607B68104A934272
:1023D00002D8104BFB6001E00F4BFB603B6803F041
:1023E0000053002B07D03B6823F0F02323F0821327
:1023F000FA68D36006E03B6823F0F02323F08213F1
:10240000FA6893601437BD465DF8047B704700BFDF
:102410000F640240006002400064024080B588B052
:1024200000AF27233B7700237B770023BB77012373
:10243000FB7707F11C03184600F0DAF804200121AD
:10244000FFF7BCF94FF480200121FFF7D5F94FF4D5
:1024500040637B6102233B760023BB760023FB763F
:1024600002237B7607F1140316481946FFF72CFC6C
:1024700014480A210722FFF7D1FC12480B2107223A
:10248000FFF7CCFC4FF4E1337B6000233B8100235A
:102490007B810023BB8100233B820C23FB813B1DFE
:1024A00009481946FDF770FE074840F22551012200
:1024B000FDF77AFF04480121FDF722FF2037BD46D2
:1024C00080BD00BF000802400048004080B400AF5B
:1024D000BD465DF8047B704780B582B000AF002335
:1024E000FB803C4840F22551FDF7A6FF0346002B38
:1024F0006DD0384840F225510022FDF755FF354890
:1025000040F22551FDF7F4FF3248FDF719FF03466D
:10251000DBB2FB80FB8803F08003002B19D02E4B2D
:1025200000221A80FB881B029AB22B4B1A802B4B7D
:102530001B78002B06D02A4B1B780133DAB2284BCC
:102540001A7002E0264B00221A70244B01221A70E6
:102550001EE0214B1A88FB8853409AB21E4B1A800A
:102560001D4B1A881F4B1A801D4B00221A701B4BE3
:102570001B78002B06D11A4B1B780133DAB2184BAB
:102580001A7002E0164B00221A70144B00221A70C7
:10259000134B1B78002B0AD0134B1A88114B1A804F
:1025A000104B1A880C4B1A800C4B00221A700C4BE3
:1025B0001B78022B05D90D484FF40061FFF712FC80
:1025C000F9E7044840F225510122FDF7EDFE0837F6
:1025D000BD4680BD004800402C2A00202E2A002045
:1025E0002F2A0020202A0020222A0020000002405A
:1025F00080B485B000AF78600023FB730023BB7309
:102600000F237B737B68DB78002B38D0264BDB688D
:10261000DB4303F4E0631B0AFB73FB7BC3F104039E
:10262000BB737A7BFB7B42FA03F37B737B685B783B
:102630001A46BB7B02FA03F3FB737B689A787B7BB9
:102640001340DAB2FB7B1343FB73FB7B1B01FB7371
:10265000164A7B681B781344FA7B83F80023134ADD
:102660007B681B785B09DBB218467B681B7803F03C
:102670001F03012101FA03F342F820300FE00B4958
:102680007B681B785B09DBB218467B681B7803F01C
:102690001F0301229A4000F1200341F82320143740
:1026A000BD465DF8047B704700ED00E000E100E00E
:1026B00080B485B000AF786039600023FB817B680F
:1026C0001B88FB817B68284A934213D07B68274A8A
:1026D00093420FD07B68B3F1804F0BD07B68244AC4
:1026E000934207D07B68234A934203D07B68224AF7
:1026F000934208D1FB8923F07003FB813B685A8821
:10270000FB891343FB817B681C4A93420CD07B6896
:102710001B4A934208D0FB8923F44073FB813B683A
:102720001A89FB891343FB817B68FA891A803B680D
:102730005A687B68DA623B681A887B681A857B680E
:10274000094A934203D07B68084A934204D13B680C
:102750009B7A9AB27B681A867B6801229A82143728
:10276000BD465DF8047B7047000001400004014055
:102770000004004000080040000C00400010004031
:102780000014004080B483B000AF78600B46FB704B
:10279000FB78002B08D07B681B889BB243F00103B9
:1027A0009AB27B681A8007E07B681B889BB223F093
:1027B00001039AB27B681A800C37BD465DF8047B32
:1027C000704700BF80B483B000AF78600B467B8059
:1027D00013467B707B78002B08D07B689B899AB26C
:1027E0007B8813439AB27B689A8109E07B689B8956
:1027F0009AB27B88DB439BB213409AB27B689A8182
:102800000C37BD465DF8047B704700BF80B483B0D1
:1028100000AF78600B467B807B88DB439AB27B6895
:0C2820001A820C37BD465DF8047B70473F
:10282C00050013000100020003000400050006006F
:10283C000700080009000A000B000C000D000E0038
:10284C000F0010001100120013006400000064005F
:10285C00D4FE00000000F6FFF6FF38FFD4FE140093
:10286C001400F6FFF6FFBAFF000006FF38FF9CFFCE
:10287C0038FF38FF02000000A8FD0000640064006F
:10288C00640064005E016400CEFFCEFFCEFFCEFF7D
:10289C0000002C0138FF38FF00000000000005008C
:1028AC000000F40164006400640064006400320001
:1028BC006400CEFFCEFFCEFFCEFF00002C0138FF10
:1028CC0038FF000000000000050000002003640039
:1028DC00640064006400640032006400CEFFCEFF2C
:1028EC00CEFFCEFF000020038A028A020000000007
:1028FC00000003000C0020039600F401F4012C01ED
:10290C002C010000CEFF2C012C01F401F401640019
:10291C00B004D4FED4FED4FE00000000050032004A
:10292C0020032C0164006400C800C80000000000F3
:10293C000000000000000000C800B004D4FED4FE6B
:10294C00D4FE2C012C010000050013000100020034
:10295C0003000400050006000700080009000A0037
:10296C000B000C000D000E000F00100011001200E7
:10297C001300640000006400D4FE00000000F6FFA9
:10298C00F6FF38FFD4FE00000000F6FFF6FFBAFF9A
:10299C00000006FF38FF9CFF38FF38FF04000000E2
:1029AC005802640038FF38FF38FF38FF0000000081
:1029BC0064006400640064005E010000000000001C
:1029CC00F40138FF38FF05000000E0FC6400CEFF86
:1029DC00CEFFCEFFCEFF00006400640064006400F4
:1029EC00640032000000000000002003C800C80092
:1029FC0000000000C800960000000000000000006D
:102A0C0000000000E2FFE2FFE2FFE2FF260200000E
:102A1C00000000000000000000000F000000E0FCBF
:102A2C0000002C012C01F401F401C8009600F40103
:102A3C00F4012C012C010000D4FE00000000B004B5
:102A4C00580258020A006400E0FC000064006400B4
:102A5C0064006400C8009600C800C8002C012C015A
:102A6C000000D4FE0000000078050000000000000B
:102A7C000900130001000200030004000500060019
:102A8C000700080009000A000B000C000D000E00E6
:102A9C000F0010001100120013001400000064005D
:102AAC00D4FE00000000F6FFF6FF38FFD4FE140041
:102ABC001400F6FFF6FFBAFF000006FF38FF9CFF7C
:102ACC0038FF38FF0600000038FF320032003200B9
:102ADC00320032006400000082008200820082001A
:102AEC006400000038FF38FF000000000000080000
:102AFC000000D4FE0000C800C800000000005E0109
:102B0C00640000000000640064000000BC023EFE93
:102B1C003EFE00000000000005000300BC020000A7
:102B2C0000000000D4FED4FE5E019CFF00000000FB
:102B3C0064006400000084036AFF6AFF0000000068
:102B4C00000005000F00BC026AFF2C012C01C8001C
:102B5C00C8006AFF64006AFF6AFF2C012C010000A8
:102B6C008403C800C800D4FE900190010A00320012
:102B7C00BC026AFF2C012C0106FF06FF3200640028
:102B8C000CFE0CFE900190019CFF84036AFF6AFF0F
:102B9C00D4FE900190010000090000001300000019
:102BAC00010000000200000003000000040000000F
:102BBC0005000000060000000700000008000000EF
:102BCC00090000000A0000000B0000000C000000CF
:102BDC000D0000000E0000000F00000010000000AF
:102BEC00110000001200000013000000140000008F
:102BFC000000000064000000D4FEFFFF0000000095
:102C0C0000000000F6FFFFFFF6FFFFFF38FFFFFF9D
:102C1C00D4FEFFFF1400000014000000F6FFFFFFBD
:102C2C00F6FFFFFFBAFFFFFF0000000006FFFFFFEB
:102C3C0038FFFFFF9CFFFFFF38FFFFFF38FFFFFF50
:102C4C000600000000000000C800000000000000AA
:102C5C008200000082000000820000008200000060
:102C6C00640000003200000032000000320000005E
:102C7C003200000032000000640000000000000080
:102C8C0000000000000000000000000038FFFFFF03
:102C9C0038FFFFFF08000000000000002C010000BE
:102CAC006400000000000000000000006400000050
:102CBC00640000000000000000000000C8000000DC
:102CCC00C800000000000000000000005E010000D1
:102CDC00000000000000000000000000BC0200002A
:102CEC003EFEFFFF3EFEFFFF05000000030000005C
:102CFC0044FDFFFF9CFFFFFF0000000000000000F0
:102D0C00000000000000000000000000C8000000EF
:102D1C0000000000000000009CFFFFFF9CFFFFFF75
:102D2C006400000000000000000000000000000033
:102D3C00840300006AFFFFFF6AFFFFFF050000002D
:102D4C000F00000044FDFFFF640000006AFFFFFF5E
:102D5C006AFFFFFF2C0100002C01000000000000A6
:102D6C006AFFFFFF9001000090010000640000006A
:102D7C00640000006AFFFFFFD4FEFFFF900100001B
:102D8C009001000084030000C8000000C80000008F
:102D9C000A0000003200000044FDFFFF6400000048
:102DAC000CFEFFFF0CFEFFFF9001000090010000E5
:102DBC009CFFFFFF6AFFFFFF2C0100002C010000AD
:102DCC0006FFFFFF06FFFFFF32000000D4FEFFFFEF
:102DDC009001000090010000840300006AFFFFFFD7
:102DEC006AFFFFFF03001300010002000300040050
:102DFC00050006000700080009000A000B000C0083
:102E0C000D000E000F0010001100120013006400E2
:102E1C0000006400D4FE00000000E2FFE2FF38FF77
:102E2C00D4FE280028000A000A00BAFF000006FFA2
:102E3C0038FF9CFF38FF38FF040002002C0138FFDC
:102E4C0096009600CEFFCEFF00009600CEFFCEFF80
:102E5C00320032000000F40138FF38FF000000009F
:102E6C00000004000800BC0238FF320032006AFF88
:102E7C006AFF0000960006FF06FF0000000000003D
:102E8C00B0049001900100000000000005006400F7
:102E9C00BC0238FFCEFFCEFF9600960000009600D5
:102EAC0064006400640064000000B00438FF38FF64
:102EBC0000000000000000000400130001000200EC
:102ECC0003000400050006000700080009000A00C2
:102EDC000B000C000D000E000F0010001100120072
:102EEC001300640000006400D4FE00000000E2FF48
:102EFC00E2FF38FFD4FE280028000A000A00BAFFBF
:102F0C00000006FF38FF9CFF38FF38FF0400050067
:102F1C00B0FF38FF320032006AFF6AFF00009600F3
:102F2C0006FF06FF000000006AFF00000000000022
:102F3C00F4010000000005000000D4FE9600C8005B
:102F4C00C8009CFF9CFF000038FF06FF06FF6400D2
:102F5C006400000038FF2C012C01E8030000000085
:102F6C0005000000A8FD9600C800C8009CFF9CFF4F
:102F7C00000038FF06FF06FF64006400000038FF05
:102F8C0000000000DC058A028A0205006400A8FD2E
:102F9C009600C800C8009CFF9CFF000038FF06FF8D
:102FAC0006FF64006400000038FFF401F401DC0546
:102FBC009CFF9CFF020013000100020003000400B0
:102FCC00050006000700080009000A000B000C00B1
:102FDC000D000E000F001000110012001300640011
:102FEC0000006400D4FE00000000E2FFE2FF38FFA6
:102FFC00D4FE3C003C000A000A00BAFF000006FFA9
:10300C0038FF9CFF38FF38FF140000000000000060
:10301C0000000000000000000000000000000000A4
:10302C00000000000000C80038FF38FFC80038FF5F
:10303C0038FF08006400C8009CFFC800C8009CFF53
:10304C009CFF00009CFF9CFF9CFFC800C800000078
:10305C00BC0238FF38FFBC0238FF38FF02001300F7
:10306C000100020003000400050006000700080030
:10307C0009000A000B000C000D000E000F001000E0
:10308C0011001200130064000000DAFDD4FE0000F1
:10309C000000E2FFE2FF38FFD4FE280028000A00FF
:1030AC000A00BAFF000006FF38FF9CFF38FF38FF0C
:1030BC00050032006AFFB0FF9CFF9CFF900190015D
:1030CC00F6FFCEFFC800C8003200320078000000C6
:1030DC005802580200005802580203003200FA004D
:1030EC00B0FF000000000000000088FFCEFFCEFF04
:1030FC00CEFF64006400B0FF0000C800C8000000F0
:10310C00C800C80003001300010002000300040003
:10311C00050006000700080009000A000B000C005F
:10312C000D000E000F0010001100120013006400BF
:10313C000000DAFDD4FE00000000E2FFE2FF38FFE1
:10314C00D4FE280028000A000A00BAFF000006FF7F
:10315C0038FF9CFF38FF38FF02000000320064008B
:10316C0038FF38FF38FF38FFC8009CFF32003200B0
:10317C009600960052FE00000000000000000000C7
:10318C00000005003200D4FEB0FF9CFF9CFF9001B4
:10319C009001F6FF6400F401F401D4FED4FE9CFF10
:1031AC000000580258020000580258020A000000A1
:1031BC00FA00320038FF38FF38FF38FF6400320065
:1031CC0006FF06FF9CFF9CFF64000000000000004F
:1031DC000000C800C8000000070013000100020036
:1031EC0003000400050006000700080009000A009F
:1031FC000B000C000D000E000F001000110012004F
:10320C001300320000006400D4FE00000000E2FF56
:10321C00E2FF38FFD4FE3C003C000A000A007EFFAF
:10322C00000006FF38FF9CFF38FF38FF0400060043
:10323C00B0FF38FF3200320038FF38FF0000960034
:10324C0006FF06FF000000006AFF000000000000FF
:10325C00000000000000040000009CFF9600C80065
:10326C00C8006AFF6AFF000038FFD4FED4FE640079
:10327C006400640038FF00000000C800000000007B
:10328C0005000000CEFF9CFF320032009600960035
:10329C0052FE6400CEFFCEFF32003200FA00000076
:1032AC0000000000000000000000050005005000B8
:1032BC00C80006FF06FFCEFFCEFF6AFF38FF640092
:1032CC00640038FF38FF0000C8000000000038FF21
:1032DC0000000000030000000CFE70FE06FF06FF5D
:1032EC006400640000009600C800C80038FF38FF76
:1032FC006400900138FF38FF00000000000002005D
:10330C00000044FD70FE06FF06FF64006400000030
:10331C009001C800C80038FF38FF6400900100001D
:10332C0000000000000000000500050044FD70FED8
:10333C00F401F4016400640000009001F401F40154
:10334C0038FF38FF6400900100000000000000000E
:10335C000000000004001300010002000300040040
:10336C00050006000700080009000A000B000C000D
:10337C000D000E000F00100011001200130064006D
:10338C0000006400D4FE00000000F6FFF6FF38FFDA
:10339C00D4FE280028000A000A00BAFF000006FF2D
:1033AC0038FF9CFF38FF38FF64000000000000006D
:1033BC002C012C012C012C01000000002C012C01F3
:1033CC002C012C010000DC0500000000DC050000D5
:1033DC0000003C000000000000002C012C012C011E
:1033EC002C01000000002C012C012C012C010000F0
:1033FC00DC0500000000DC050000000028000000D7
:10340C000000000038FF38FF38FF38FF00000000D4
:10341C0038FF38FF38FF38FF0000000000000000C4
:10342C000000000000003C0000000000000038FF1D
:10343C0038FF38FF38FF0000000038FF38FF38FF36
:10344C0038FF000000000000000000000000000039
:10345C000100130001000200030004000500060037
:10346C000700080009000A000B000C000D000E00FC
:10347C000F00100011001200130064000000640023
:10348C00D4FE00000000F6FFF6FF38FFD4FE140057
:10349C001400F6FFF6FFBAFF000006FF38FF9CFF92
:1034AC0038FF38FF6400000000000000000000003E
:1034BC000000000000000000000000000000000000
:1034CC0000000000000000000000000000000000F0
:1034DC0002001300010002000300040005000600B6
:1034EC000700080009000A000B000C000D000E007C
:1034FC000F001000110012001300640000006400A3
:10350C00D4FE00000000F6FFF6FF38FFD4FE1400D6
:10351C001400F6FFF6FFBAFF000006FF38FF9CFF11
:10352C0038FF38FF6400000000006AFFAE01AE01F6
:10353C00AE01AE0164007EFFAE01AE01AE01AE0184
:10354C00640054FC7602760254FC76027602640027
:10355C00000000006AFFAE01AE01AE01AE016400D6
:10356C007EFFAE01AE01AE01AE01640054FC7602EA
:10357C00760254FC7602760202001300010002006F
:10358C0003000400050006000700080009000A00FB
:10359C000B000C000D000E000F00100011001200AB
:1035AC001300640000006400D4FE00000000F6FF6D
:1035BC00F6FF38FFD4FE280028000A000A00BAFFE4
:1035CC00000006FF38FF9CFF38FF38FF3200000078
:1035DC0000000000000000000000000000000000DF
:1035EC0000000000000000000000000000000000CF
:1035FC00000000000000320000000000000000008D
:10360C0000000000000000000000000000000000AE
:10361C00000000000000000000000000000000009E
:10362C000100130001000200030004000500060065
:10363C000700080009000A000B000C000D000E002A
:10364C000F00100011001200130064000000D8FFDE
:10365C00D4FE00000000E2FFE2FF38FFD4FE280099
:10366C0028000A000A0056FF000038FF38FF9CFFB4
:10367C0038FF38FF1400000076FD00000000000049
:10368C00000000000000000000000000000000002E
:10369C00000000000000000000000000000000001E
:1036AC0002001300010002000300040005000600E4
:1036BC000700080009000A000B000C000D000E00AA
:1036CC000F001000110012001300640000006400D1
:1036DC00D4FE00000000F6FFF6FF38FFD4FE2800F1
:1036EC0028000A000A00BAFF000006FF38FF9CFF02
:1036FC0038FF38FF0A000000000000000000000046
:10370C000000000038FF0000000000000000000076
:10371C0038FF0000C201C2010000C201C2011E003C
:10372C0064000000000048FE48FE48FE48FE000011
:10373C00000048FE48FE48FE48FE00000000000065
:10374C000000000000000000070013000100020050
:10375C0003000400050006000700080009000A0029
:10376C000B000C000D000E000F00100011001200D9
:10377C001300640000006400D4FE78007800F6FFAB
:10378C00F6FF38FFD4FE78007800F6FFF6FFBAFF9C
:10379C00000006FF38FF9CFF38FF38FF6400000074
:1037AC00000000002AFE2AFE2AFE2AFE000000006D
:1037BC002AFE2AFE2AFE2AFE00000000C201C201D7
:1037CC000000C201C20164000000000000002AFEDB
:1037DC002AFE2AFE2AFE000000002AFE2AFE2AFEED
:1037EC002AFE00001405C201C2011405C201C20167
:1037FC006400000000002C0116FE16FE16FE16FEDC
:10380C00D4FE2C0116FE16FE16FE16FED4FE840304
:10381C00D4FED4FE8403D4FED4FE64000000200346
:10382C00640016FE16FE16FE16FED4FE2C0116FEC5
:10383C0016FE16FE16FED4FE0000F401F4018403FD
:10384C002C012C01640000002003640016FE16FEFF
:10385C0016FE16FED4FE2C0116FE16FE16FE16FEE5
:10386C00D4FE00000000000084032C012C01640035
:10387C000000000064009CFF9CFF9CFF9CFFD4FE9A
:10388C002C019CFF9CFF9CFF9CFFD4FE00000000C1
:10389C0000000000000000006400000000000000B8
:1038AC002AFE2AFE2AFE2AFE000000002AFE2AFE1C
:1038BC002AFE2AFE00008403C201C2018403C20155
:1038CC00C201000006001300010002000300040006
:1038DC00050006000700080009000A000B000C0098
:1038EC000D000E000F0010001100120013006400F8
:1038FC0000006400D4FE78007800F6FFF6FF38FF75
:10390C00D4FE8C008C00F6FFF6FFBAFF000006FF19
:10391C0038FF9CFF38FF38FF9600320000002C0166
:10392C002AFE2AFE2AFE2AFE00002C012AFE2AFE6E
:10393C002AFE2AFE000018FC5802580250FB5802BE
:10394C005802640000000000C8002AFE2AFE2AFE6D
:10395C002AFE0000C8002AFE2AFE2AFE2AFE0000CB
:10396C007CFCD4FED4FE7CFCD4FED4FE960032004B
:10397C008403C8002AFE2AFE2AFE2AFE0000C80084
:10398C002AFE2AFE2AFE2AFE00007CFC90019001F1
:10399C007CFCC800C8009600320058022C0116FEB0
:1039AC0016FE16FE16FED4FE2C0116FE16FE16FE94
:1039BC0016FED4FE0000C800C8004C045802580281
:1039CC006400320000002C0116FE16FE16FE16FED8
:1039DC00D4FE2C0116FE16FE16FE16FED4FE0000BA
:1039EC0090019001000090019001640032000000F1
:1039FC00000038FF38FF38FF38FF70FE000038FF3A
:103A0C0038FF38FF38FF70FE000090019001000075
:103A1C00900190010100130001000200030004005A
:103A2C00050006000700080009000A000B000C0046
:103A3C000D000E000F0010001100120013006400A6
:103A4C0000006400D4FE00000000F6FFF6FF38FF13
:103A5C00D4FE280028000A000A00BAFF000006FF66
:103A6C0038FF9CFF38FF38FF960000000000000074
:103A7C00000000000000000000000000000000003A
:103A8C00000000000000000000000000DC05000049
:103A9C0000000000020013000100020003000400FB
:103AAC00050006000700080009000A000B000C00C6
:103ABC000D000E000F001000110012001300640026
:103ACC0000006400D4FE00000000F6FFF6FF38FF93
:103ADC00D4FE280028000A000A00BAFF000006FFE6
:103AEC0038FF9CFF38FF38FF460000000000000044
:103AFC0000000000000000000000000000000000BA
:103B0C00000000000000000000000000DC050CFEBE
:103B1C000CFE460000000000000000000000000049
:103B2C000000000000000000000000000000000089
:103B3C00000000000000DC05000000000300130082
:103B4C000100020003000400050006000700080045
:103B5C0009000A000B000C000D000E000F001000F5
:103B6C00110012001300140000009CFFD4FECEFFC5
:103B7C00CEFF1400140038FFD4FECEFFCEFF14008D
:103B8C001400BAFF000006FF38FF9CFF38FF38FF17
:103B9C0006000F00CEFFCEFF06FF06FF2C012C0106
:103BAC006AFF320090019001D4FED4FE6AFF00003F
:103BBC000000000000000000000005000300C80029
:103BCC0096002C012C01000000009600CEFF000096
:103BDC000000C800C8009600000000000000C800EB
:103BEC0000000000040000002C010000D4FED4FEF4
:103BFC00D4FED4FE9CFF0000D4FED4FED4FED4FE32
:103C0C009CFF00000000000000000000000000000D
:103C1C00030013000100020003000400050006006D
:103C2C000700080009000A000B000C000D000E0034
:103C3C000F001000110012001300140000006400AB
:103C4C00D4FECEFFCEFF1400140038FFD4FECEFFFE
:103C5C00CEFF14001400BAFF000006FF38FF9CFFD3
:103C6C0038FF38FF05000F003200CEFF2C012C016D
:103C7C00D4FED4FE6AFF00006AFF6AFF960096002D
:103C8C006AFF0000000000000000000000000500BA
:103C9C00030000000000D4FED4FE2C012C016400B3
:103CAC000000960096006AFF6AFF640038FF00006F
:103CBC0000000000000000000500000038FF0000BC
:103CCC00D4FED4FED4FED4FE64000000D4FED4FE98
:103CDC00D4FED4FED4FE0000000000000000000062
:103CEC0000000000020013000100020003000400A9
:103CFC00050006000700080009000A000B000C0074
:103D0C000D000E000F001000110012001300320005
:103D1C0000006400D4FE00000000E2FFE2FF38FF68
:103D2C00D4FE3C003C000A000A007EFF000006FFA7
:103D3C0038FF9CFF38FF38FF140000003200CEFF24
:103D4C00CEFFCEFF3200320046009CFF3200320024
:103D5C0096009600D4FE0000000000000000000059
:103D6C000000080000009CFF38FF9CFF9CFF000037
:103D7C0000006400ECFF6AFF6AFFCEFFCEFF32004A
:103D8C00000000000000000000000000060013000E
:103D9C0001000200030004000500060007000800F3
:103DAC0009000A000B000C000D000E000F001000A3
:103DBC00110012001300320000006400D4FE000059
:103DCC000000E2FFE2FF38FFD4FE3C003C000A009A
:103DDC000A007EFF000006FF38FF9CFF38FF38FF0B
:103DEC0004000300B0FF38FF3200320038FF38FF08
:103DFC000000960006FF06FF000000006AFF0000AE
:103E0C0000000000000000000000040000009CFF07
:103E1C009600C800C8006AFF6AFF000038FFD4FE95
:103E2C00D4FE64006400640038FF00000000C80089
:103E3C000000000005000000CEFF9CFF32003200A5
:103E4C009600960052FE6400CEFFCEFF3200320088
:103E5C00FA00000000000000000000000000050057
:103E6C0002005000C80006FF06FFCEFFCEFF6AFF1F
:103E7C0038FF6400640038FF38FF0000C800000001
:103E8C00000038FF0000000004000300640038FF4D
:103E9C0006FF06FF6400640000009600C800C8001E
:103EAC0000000000640000000000000000000000A2
:103EBC0000000400000032006400CEFFCEFF320090
:103ECC003200C8009CFF320032009600960052FE71
:103EDC0000000000000000000000000003000000D3
:103EEC0013000000010000000200000003000000AD
:103EFC0004000000050000000600000007000000A0
:103F0C0008000000090000000A0000000B0000007F
:103F1C000C0000000D0000000E0000000F0000005F
:103F2C00100000001100000012000000130000003F
:103F3C00320000000000000064000000D4FEFFFF0F
:103F4C000000000000000000E2FFFFFFE2FFFFFFA7
:103F5C0038FFFFFFD4FEFFFF3C0000003C000000D8
:103F6C000A0000000A0000007EFFFFFF00000000B6
:103F7C0006FFFFFF38FFFFFF9CFFFFFF38FFFFFF2F
:103F8C0038FFFFFF050000000000000000000000EB
:103F9C00B0FFFFFF9CFFFFFF9CFFFFFF90010000A5
:103FAC0090010000F6FFFFFFCEFFFFFFC8000000EE
:103FBC00C800000032000000320000007800000051
:103FCC0000000000000000000000000000000000E5
:103FDC0000000000000000000300000000000000D2
:103FEC0000000000B0FFFFFF000000000000000018
:103FFC00000000000000000088FFFFFFCEFFFFFF65
:10400C006AFFFFFF6AFFFFFFCEFFFFFFCEFFFFFF40
:10401C00B0FFFFFF000000000000000000000000E7
:10402C000000000000000000000000000300000081
:10403C00070000000000000000000000000000006D
:10404C00000000000000000000000000E2FFFFFF85
:10405C000000000000000000000000000000000054
:10406C0000000000E2FFFFFF000000000000000065
:10407C000000000000000000000000000000000034
:10408C0002001300010002000300040005000600FA
:10409C000700080009000A000B000C000D000E00C0
:1040AC000F001000110012001300640000006400E7
:1040BC00D4FE00000000E2FFE2FF38FFD4FE3C001B
:1040CC003C000A000A007EFF000006FF38FF9CFF40
:1040DC0038FF38FF05000000640000002C012C01A3
:1040EC0070FE70FE9CFF0000000000006400640085
:1040FC00000000000000640000000000000005004B
:10410C00000038FF32002C012C01D4FED4FEC80074
:10411C0064009CFF9CFFFA00FA0038FF00000000CE
:10412C0064000000000000001000130001000200F9
:10413C0003000400050006000700080009000A003F
:10414C000B000C000D000E000F00100011001200EF
:10415C00130064000000DAFDD4FE00000000E2FF52
:10416C00E2FF38FFD4FE3C003C000A000A007EFF50
:10417C00000006FF38FF9CFF38FF38FF05000000E9
:10418C00640000002C012C0170FE70FE9CFF0000EE
:10419C0000000000640064000000000000006400E7
:1041AC000000000000000500000038FF32002C0168
:1041BC002C01D4FED4FEC80064009CFF9CFFFA00C6
:1041CC00FA0038FF0000000064000000000000004E
:1041DC0006001300010002000300040005000600A5
:1041EC000700080009000A000B000C000D000E006F
:1041FC000F00100011001200130064000000640096
:10420C00D4FE00000000F6FFF6FF38FFD4FE0000DD
:10421C000000F6FFF6FF7EFF000006FF38FF9CFF54
:10422C0038FF38FF04000300B0FF38FF32003200C3
:10423C0038FF38FF0000960006FF06FF0000000064
:10424C006AFF0000000000000000000000000400F5
:10425C0000009CFF9600C800C8006AFF6AFF0000BF
:10426C0038FFD4FED4FE64006400640038FF000004
:10427C000000C8000000000005000000CEFF9CFFFD
:10428C00320032009600960052FE6400CEFFCEFF44
:10429C0032003200FA0000000000000000000000B4
:1042AC000000050002005000C80006FF06FFCEFF0C
:1042BC00CEFF6AFF38FF6400640038FF38FF00004F
:1042CC00C8000000000038FF0000000004000300DC
:1042DC00640038FF06FF06FF6400640000009600CF
:1042EC00C800C800000000006400000000000000CE
:1042FC000000000000000400000032006400CEFF4B
:10430C00CEFF32003200C8009CFF32003200960013
:10431C00960052FE000000000000000000000000AB
:10432C000600130001000200030004000500060053
:10433C000700080009000A000B000C000D000E001D
:10434C000F00100011001200130064000000DAFDD1
:10435C00D4FE00000000F6FFF6FF38FFD4FE00008C
:10436C000000F6FFF6FF7EFF000006FF38FF9CFF03
:10437C0038FF38FF04000300B0FF38FF3200320072
:10438C0038FF38FF0000960006FF06FF0000000013
:10439C006AFF0000000000000000000000000400A4
:1043AC0000009CFF9600C800C8006AFF6AFF00006E
:1043BC0038FFD4FED4FE64006400640038FF0000B3
:1043CC000000C8000000000005000000CEFF9CFFAC
:1043DC00320032009600960052FE6400CEFFCEFFF3
:1043EC0032003200FA000000000000000000000063
:1043FC000000050002005000C80006FF06FFCEFFBB
:10440C00CEFF6AFF38FF6400640038FF38FF0000FD
:10441C00C8000000000038FF00000000040003008A
:10442C00640038FF06FF06FF64006400000096007D
:10443C00C800C8000000000064000000000000007C
:10444C000000000000000400000032006400CEFFF9
:10445C00CEFF32003200C8009CFF320032009600C2
:10446C00960052FE0000000000000000000000005A
:10447C000200130001000200030004000500060006
:10448C000700080009000A000B000C000D000E00CC
:10449C000F00100011001200130064000000DAFD80
:1044AC00D4FE00000000E2FFE2FF38FFD4FE28003B
:1044BC0028000A000A007EFF000006FF38FF9CFF60
:1044CC0038FF38FF140000003200CEFFCEFFCEFFC5
:1044DC003200320046009CFF3200320096009600FB
:1044EC00D4FE0000000000000000000000000800E6
:1044FC0000009CFF38FF9CFF9CFF00000000640044
:10450C00ECFF6AFF6AFFCEFFCEFF32000000000016
:10451C000000000000000000060013000100020073
:10452C0003000400050006000700080009000A004B
:10453C000B000C000D000E000F00100011001200FB
:10454C00130064000000DAFDD4FE00000000E2FF5E
:10455C00E2FF38FFD4FE280028000A000A007EFF84
:10456C00000006FF38FF9CFF38FF38FF04000300F3
:10457C00B0FF38FF3200320038FF38FF00009600E1
:10458C0006FF06FF000000006AFF000000000000AC
:10459C00000000000000040000009CFF9600C80012
:1045AC00C8006AFF6AFF000038FFD4FED4FE640026
:1045BC006400640038FF00000000C8000000000028
:1045CC0005000000CEFF9CFF3200320096009600E2
:1045DC0052FE6400CEFFCEFF32003200FA00000023
:1045EC000000000000000000000005000200500068
:1045FC00C80006FF06FFCEFFCEFF6AFF38FF64003F
:10460C00640038FF38FF0000C8000000000038FFCD
:10461C000000000004000300640038FF06FF06FFE2
:10462C006400640000009600C800C8000000000090
:10463C006400000000000000000000000000040006
:10464C00000032006400CEFFCEFF32003200C80002
:10465C009CFF320032009600960052FE00000000D3
:10466C000000000000000000030013000100020025
:10467C0003000400050006000700080009000A00FA
:10468C000B000C000D000E000F00100011001200AA
:10469C00130064000000DAFDD4FE00000000E2FF0D
:1046AC00E2FF38FFD4FE280028000A000A007EFF33
:1046BC00000006FF38FF9CFF38FF38FF05000000A4
:1046CC000000B0FF9CFF9CFF90019001F6FFCEFF15
:1046DC00C800C80032003200780000000000000062
:1046EC00000000000000030000000000B0FF00000C
:1046FC0000000000000088FFCEFF6AFF6AFFCEFFBB
:10470C00CEFFB0FF00000000000000000000000021
:10471C000300070000000000000000000000000083
:10472C00E2FF00000000000000000000E2FF0000BB
:10473C000000000000000000000000000400130056
:10474C000100020003000400050006000700080039
:10475C0009000A000B000C000D000E000F001000E9
:10476C001100120013000A0000009CFFD4FE000090
:10477C000000F6FFF6FF38FFD4FE14001400F6FF1D
:10478C00F6FFBAFF000006FF38FF9CFF38FF38FF2A
:10479C0005000000C8003200320032003200320046
:1047AC00640000008200820082008200640000002D
:1047BC0038FF38FF0000000000000500020038FF41
:1047CC009CFF960096009600960000002C010000BD
:1047DC000000000000000000000064006400000005
:1047EC00000000000300030038FF9CFFFA00FA00F1
:1047FC002C012C0196002C019CFF9CFF9CFF9CFF24
:10480C00CEFF000064006400000000000000050002
:10481C00000038FF9CFF38FF38FF38FF38FF960048
:10482C0000003200320000000000C80000006400EC
:10483C0064000000000000000400130001000200EE
:10484C0003000400050006000700080009000A0028
:10485C000B000C000D000E000F00100011001200D8
:10486C0013000A0000009CFFD4FE00000000F6FFBD
:10487C00F6FF38FFD4FE14001400F6FFF6FFBAFF63
:10488C00000006FF38FF9CFF38FF38FF04000000D3
:10489C00C800CEFF000000000000000038FF6400DC
:1048AC0038FF38FFCEFFCEFF6400000064006400C8
:1048BC000000000000000500000038FF640000004C
:1048CC0000000000000038FF64009CFF9CFF9CFF70
:1048DC009CFF38FF000000000000000000000000FA
:1048EC000300000038FF000038FF38FF9CFF9CFFDE
:1048FC0038FF960032003200CEFFCEFF38FF0000AA
:10490C00000000000000000000000100000038FF63
:10491C009600000000000000000038FF0000CEFFF1
:10492C00CEFFCEFFCEFFC80000000000000000004C
:10493C00000000000200130001000200030004004C
:10494C00050006000700080009000A000B000C0017
:10495C000D000E000F0010001100120013003200A9
:10496C0000006400D4FE00000000E2FFE2FF38FF0C
:10497C00D4FE3C003C000A000A007EFF000006FF4B
:10498C0038FF9CFF38FF38FF050000003200640040
:10499C009CFF9CFF00000000C80064003200320045
:1049AC00FA00FA0038FF00000000000000000000D0
:1049BC0000000500000032002C0100000000FA008D
:1049CC00FA0064009CFF32003200FA00FA006AFF21
:1049DC0000000000000000000000000002001300B6
:1049EC000100020003000400050006000700080097
:1049FC0009000A000B000C000D000E000F00100047
:104A0C0011001200130032000000DAFDD4FE000089
:104A1C000000E2FFE2FF38FFD4FE3C003C000A003D
:104A2C000A007EFF000006FF38FF9CFF38FF38FFAE
:104A3C0005000000320064009CFF9CFF0000000099
:104A4C00C800640032003200FA00FA0038FF00009F
:104A5C000000000000000000000005000000320013
:104A6C002C0100000000FA00FA0064009CFF3200E8
:104A7C003200FA00FA006AFF00000000000000009B
:104A8C0000000000040013000100020003000400F9
:104A9C00050006000700080009000A000B000C00C6
:104AAC000D000E000F001000110012001300640026
:104ABC000000DAFDD4FECEFFCEFF2800280038FF20
:104ACC00D4FED8FF0A000A000A00BAFF000006FF55
:104ADC0038FF9CFF38FF38FF0600000090013200C1
:104AEC00320032003200320064000000820082008A
:104AFC00820082006400000038FF38FF00000000D4
:104B0C0000000500020038FF9CFF960096009600FE
:104B1C00960000002C0100000000000000000000C6
:104B2C0000006400640000000000000003000300AB
:104B3C0038FF9CFFFA00FA002C012C0196002C0186
:104B4C009CFF9CFF38FF38FFCEFF00006400640020
:104B5C000000000000000700000038FF9CFF38FF39
:104B6C0038FF38FF38FF960000003200320000009A
:104B7C000000C80000006400640000000000000099
:104B8C0004001300010002000300040005000600ED
:104B9C000700080009000A000B000C000D000E00B5
:104BAC000F00100011001200130064000000DAFD69
:104BBC00D4FECEFFCEFF2800280038FFD4FED8FF4D
:104BCC000A000A000A00BAFF000006FF38FF9CFF2B
:104BDC0038FF38FF04000000C800000064006400C7
:104BEC00640064005E01640038FF38FF38FF38FF52
:104BFC006400000064006400000000000000050078
:104C0C00000038FF640000000000000000003200CB
:104C1C0064009CFF9CFF9CFF9CFF38FF0000000081
:104C2C0000000000000000000300000038FF00003E
:104C3C006AFF6AFF6AFF6AFF260296000000000006
:104C4C000000000038FF0000000000000000000021
:104C5C0000000100000038FF96000000000000007A
:104C6C0000002C010000CEFFCEFFCEFFCEFFC8000F
:104C7C000000000000000000000000000400130011
:104C8C0001000200030004000500060007000800F4
:104C9C0009000A000B000C000D000E000F001000A4
:104CAC00110012001300640000006400D4FE000028
:104CBC000000F6FFF6FF38FFD4FE00000000F6FF00
:104CCC00F6FF7EFF000006FF38FF9CFF38FF38FF21
:104CDC000600000038FF000000000000000000008B
:104CEC0064009CFF3200320032003200640000008D
:104CFC0000000000000038FF38FF0500020038FFFC
:104D0C002C01000000000000000000009CFF960039
:104D1C009600960096006400000000000000000061
:104D2C006400640006000000C80096009CFF9CFF15
:104D3C009CFF9CFF38FF64002C012C012C012C01E2
:104D4C00FA0000000000000000006400640007008E
:104D5C00000038FF0000CEFFCEFF00000000C800AE
:104D6C009CFFCEFFCEFFCEFFCEFF960000000000D2
:104D7C000000000064006400040013000100020045
:104D8C0003000400050006000700080009000A00E3
:104D9C000B000C000D000E000F0010001100120093
:104DAC001300640000006400D4FE00000000F6FF55
:104DBC00F6FF38FFD4FE00000000F6FFF6FF7EFF82
:104DCC00000006FF38FF9CFF38FF38FF040000008E
:104DDC00C80064009CFF9CFF9CFF9CFF000000002F
:104DEC0064006400640064005E01000000000000C8
:104DFC0000006400640005000000C8006400D8FFD7
:104E0C00D8FFD8FFD8FF0000640064006400640081
:104E1C0064003200000000000000000000000000F0
:104E2C0000000000C8009CFF38FF38FF38FF38FF37
:104E3C0000006AFF9CFF9CFF6AFF6AFF26020000CD
:104E4C000000000000000000000003000000000053
:104E5C000000000000000000000000000000000046
:104E6C000000000000000000000000000000000036
:104E7C00000000000C0013000100020003000400FD
:104E8C00050006000700080009000A000B000C00D2
:104E9C000D000E000F001000110012001300640032
:104EAC0000006400D4FE00000000F6FFF6FF38FF9F
:104EBC00D4FE280028000A000A00BAFF000006FFF2
:104ECC0038FF9CFF38FF38FF05000000C800640065
:104EDC000000000038FF38FF9CFF0000D4FED4FE19
:104EEC0090019001CEFF00000000000000000000C7
:104EFC00000005000000C8009CFF06FF06FF6400D0
:104F0C006400CEFFC800000000005E015E010000DE
:104F1C000000000000000000000000000500000080
:104F2C00C800640000000000960096009CFF000082
:104F3C0000000000C800C8002C01000000000000A8
:104F4C0000000000000000000C0013000100020033
:104F5C0003000400050006000700080009000A0011
:104F6C000B000C000D000E000F00100011001200C1
:104F7C00130064000000DAFDD4FE00000000F6FF10
:104F8C00F6FF38FFD4FE280028000A000A00BAFFFA
:104F9C00000006FF38FF9CFF38FF38FF05000000BB
:104FAC00C80064000000000038FF38FF9CFF0000C0
:104FBC00D4FED4FE90019001CEFF00000000000052
:104FCC0000000000000005000000C8009CFF06FF68
:104FDC0006FF64006400CEFFC800000000005E0104
:104FEC005E01000000000000000000000000000056
:104FFC0005000000C8006400000000009600960048
:10500C009CFF000000000000C800C8002C0100003C
:10501C00000000000000000000000000040013006D
:10502C000100020003000400050006000700080050
:10503C0009000A000B000C000D000E000F00100000
:10504C0011001200130006000000DAFDD4FE00006F
:10505C000000F6FFF6FF38FFD4FE00000000F6FF5C
:10506C00F6FFBAFF000006FF38FF9CFF38FF38FF41
:10507C000500020038FF2C010000000000000000B9
:10508C0000009CFF960096009600960064000000BD
:10509C000000000000006400640006000000C8006E
:1050AC0096009CFF9CFF9CFF9CFF6AFF64002C01F8
:1050BC002C012C012C01C800000000000000000095
:1050CC00640064000700000038FF0000CEFFCEFF34
:1050DC0000000000C8009CFFCEFFCEFFCEFFCEFF2D
:1050EC009600000000000000000064006400040052
:1050FC000000C80064009CFF9CFF9CFF9CFF00000C
:10510C00000064006400640064005E0100000000A4
:10511C0000000000640064000400130001000200A1
:10512C0003000400050006000700080009000A003F
:10513C000B000C000D000E000F00100011001200EF
:10514C00130006000000DAFDD4FE00000000F6FF9C
:10515C00F6FF38FFD4FE00000000F6FFF6FFBAFFA2
:10516C00000006FF38FF9CFF38FF38FF04000000EA
:10517C00C80064009CFF9CFF9CFF9CFF000000008B
:10518C0064006400640064005E0100000000000024
:10519C0000006400640005000000C8006400D8FF33
:1051AC00D8FFD8FFD8FF00006400640064006400DE
:1051BC00640032000000000000000000000000004D
:1051CC0000000000C8009CFF38FF38FF38FF38FF94
:1051DC0000006AFF9CFF9CFF6AFF6AFF260200002A
:1051EC0000000000000000000000030000000000B0
:1051FC0000000000000000000000000000000000A3
:10520C000000000000000000000000000000000092
:10521C000000000001000000000000000102030477
:10522C00010203040607080980969800007A030A15
:10523C00000000000000000001020304060708093A
:04524C00008000805E
:0400000508000000EF
:00000001FF
