:020000040800F2
:10000000F842002029050008810500088105000844
:100010008105000881050008810500080000000036
:100020000000000000000000000000008105000842
:10003000810500080000000081050008690700082C
:100040008105000881050008810500088105000878
:100050008105000881050008810500088105000868
:100060008105000881050008810500088105000858
:10007000F91C0008810500088105000881050008B9
:100080008105000881050008810500088105000838
:100090008105000881050008810500088105000828
:1000A0008105000881050008810500088105000818
:1000B00081050008F1140008810500088105000889
:1000C00081050008810500088105000881050008F8
:1000D000810500088105000881050008051D00084C
:1000E00081050008810500088105000881050008D8
:1000F00081050008810500088105000881050008C8
:1001000081050008810500088105000881050008B7
:1001100081050008810500088105000881050008A7
:100120008105000881050008810500088105000897
:100130008105000881050008810500088105000887
:100140008105000881050008810500088105000877
:1001500081050008810500088D110008810500084F
:100160008105000881050008810500088105000857
:100170008105000881050008810500088105000847
:10018000810500088105000880B58AB000AF78605D
:10019000396000237B6200233B620023FB61002364
:1001A000BB617B681B8A9BB27B627B6A23F44053F2
:1001B0007B623B68DB881A467B6A13437B627B6AFF
:1001C0009AB27B681A827B689B899BB27B627B6A4E
:1001D00023F4B05323F00C037B623B689A883B689E
:1001E0001B8913439AB23B685B8913439BB21A463F
:1001F0007B6A13437B627B6A9AB27B689A817B68D5
:100200009B8A9BB27B627B6A23F440737B623B6870
:100210009B891A467B6A13437B627B6A9AB27B682E
:100220009A8207F10803184600F0C2FF7B68314A42
:10023000934203D07B68304A934202D17B693B6290
:1002400001E03B693B627B689B899BB29BB21BB21E
:10025000002B0CDA3A6A13469B0013449A001A44A6
:100260003B681B685B00B2FBF3F3FB610BE03A6A8F
:1002700013469B0013449A001A443B681B689B007A
:10028000B2FBF3F3FB61FB691C4AA2FB03235B098E
:100290001B017B627B6A1B09642202FB03F3FA6980
:1002A000D31ABB617B689B899BB29BB21BB2002BAC
:1002B0000CDABB69DB003233104AA2FB03235B0973
:1002C00003F007037A6A13437B620BE0BB691B01EF
:1002D00032330A4AA2FB03235B0903F00F037A6A55
:1002E00013437B627B6A9AB27B681A812837BD46CA
:1002F00080BD00BF00100140001401401F85EB517C
:1003000080B483B000AF78600B46FB70FB78002BA5
:1003100008D07B689B899BB243F400539AB27B68F8
:100320009A8107E07B689B899BB223F400539AB2C1
:100330007B689A810C37BD465DF8047B704700BF2F
:1003400080B483B000AF78607B689B889BB2C3F3B6
:1003500008039BB218460C37BD465DF8047B704716
:1003600080B483B000AF78600B467B8013467B700F
:100370007B78002B08D07B689B8A9AB27B881343DA
:100380009AB27B689A8209E07B689B8A9AB27B88E2
:10039000DB439BB213409AB27B689A820C37BD460E
:1003A0005DF8047B704700BF80B487B000AF786011
:1003B0000B467B8013467B7000233B610023FB6070
:1003C0000023BB6000237B617B687B617B88DBB2A1
:1003D0005B09DBB23B617B8803F01F03FB60FB68BA
:1003E000012202FA03F3BB603B69012B03D17B6955
:1003F0000C337B6109E03B69022B03D17B6910332D
:100400007B6102E07B6914337B617B78002B06D033
:100410007B697A691168BA680A431A6006E07B69E9
:100420007A691168BA68D2430A401A601C37BD461F
:100430005DF8047B704700BF80B487B000AF786080
:100440000B467B800023FB6000237B610023BB60A5
:100450000023FB747B88DBB25B09DBB2BB607B886B
:1004600003F01F037B617B69012202FA03F37B61C6
:10047000BB68012B07D17B689B899BB21A467B69BD
:1004800013407B6111E0BB68022B07D17B681B8A9C
:100490009BB21A467B6913407B6106E07B689B8AAE
:1004A0009BB21A467B6913407B617B881B0A9BB217
:1004B000FB60FB68012202FA03F3FB607B681B8888
:1004C0009BB21A46FB681340FB607B69002B05D08A
:1004D000FB68002B02D00123FB7401E00023FB74B6
:1004E000FB7C18461C37BD465DF8047B704700BF97
:1004F00080B485B000AF78600B467B800023FB8121
:100500000023BB817B881B0AFB81FB89012202FA45
:1005100003F3BB81BB89DB439AB27B681A80143733
:10052000BD465DF8047B704780B582B000AF0F4BCD
:100530007B600F4B3B6007E03B681A1D3A607A68AE
:10054000111D796012681A603B680A4A9342F3D31E
:1005500009480A494FF000028842B8BF40F8042B0E
:10056000FADB00F073F90837BD4680BD582000085B
:1005700000000020D4130020D4130020F83A0020FB
:1005800080B400AFFEE700BF80B582B000AF272384
:100590003B7103237B710023BB710123FB713B1D66
:1005A000184601F03BFC46233B7101237B7100237D
:1005B000BB710123FB713B1D184601F02FFCFF238B
:1005C0003B7102237B710023BB710123FB713B1D37
:1005D000184601F023FC0837BD4680BD80B582B0C7
:1005E00000AF0120012100F08DFE4FF400633B605D
:1005F00001233B7102237B710023BB710023FB713C
:100600003B460D48194600F083FF0420012100F00D
:1006100079FE01233B6000233B7102237B710023A1
:10062000BB710223FB713B460448194600F070FF82
:100630000837BD4680BD00BF0000024000080240F0
:1006400080B596B000AF0220012100F05BFE1020C3
:10065000012100F093FEC0233B65022387F854304C
:10066000002387F85630002387F85730022387F895
:10067000553007F150033748194600F049FF354817
:100680000621072200F0E0FF32480721072200F090
:10069000DBFF4FF4E1333B640023A7F84430002331
:1006A000A7F846300023A7F848300023A7F84C30BD
:1006B0000C23A7F84A3007F1400327481946FFF7F3
:1006C00063FD254840F225510122FFF76DFE2348C6
:1006D00001F0A8F84FF48000012100F013FE002380
:1006E0003B6300237B630023BB6300237B624FF4E7
:1006F0008063FB610023BB62194BBB600023FB637B
:1007000000233B620023BB614FF40033FB620123F3
:100710007B614FF000637B6040233B61114BFB60CA
:100720003B1D0E48194601F04FF90C48002101F01D
:10073000A1F90A481021012201F0C6F906488021DA
:100740000122FFF70DFE04480121FFF7D9FD5837BC
:10075000BD4680BD0004024000100140B864024064
:1007600004100140E813002080B400AF064B1B6862
:10077000002B04D0044B1B68013B034A1360BD46A9
:100780005DF8047B704700BFE013002080B483B0A5
:1007900000AF7860064A7B68136000BF044B1B689B
:1007A000002BFBD10C37BD465DF8047B704700BFC2
:1007B000E013002080B483B000AF03463960FB71C2
:1007C00097F90730002B0BDA0D49FB7903F00F0383
:1007D000043B3A68D2B21201D2B20B441A7609E055
:1007E000084997F907303A68D2B21201D2B20B44E5
:1007F00083F800230C37BD465DF8047B704700BFCB
:1008000000ED00E000E100E080B582B000AF78606C
:100810007B68B3F1807F01D3012311E00A4A7B6832
:1008200023F07F43013B53604FF0FF300F21FFF770
:10083000C1FF054B00229A60034B07221A60002378
:1008400018460837BD4680BD10E000E080B500AF17
:1008500000F042FFFFF7C2FEFFF796FEFFF7F0FE43
:1008600001F0F2F900F0A8FD0E4B1B680E4AA2FB46
:1008700003239B091846FFF7C7FF0346002B00D050
:10088000FEE747F6FF7000F011F84FF4094000F062
:100890000DF80A20FFF77AFF00F0C4FD0A20FFF7E9
:1008A00075FFF9E7BC130020D34D621080B582B00C
:1008B00000AF0346FB8005480021FFF721FDFB88C0
:1008C000184600F005F80837BD4680BD00480040D6
:1008D00080B582B000AF0346FB80FB8848F221025E
:1008E000934200F0928048F22102934235DC48F2B4
:1008F0000302934200F0D68048F20302934214DCD4
:10090000B3F5004F5FD0B3F5004F05DC47F6FF723B
:10091000934200F0DB80E0E048F20102934266D0AF
:1009200048F20202934277D0D7E048F2080293429D
:1009300000F08E8048F20802934204DC48F2040280
:10094000934277D0C9E048F20C02934200F0B180A4
:1009500048F21102934251D0BFE048F20122934283
:1009600000F0928048F20122934214DC48F2240203
:10097000934266D048F22402934204DC48F22202F9
:10098000934250D0A9E048F22802934267D0B3F5D1
:10099000014F26D0A1E048F20822934266D048F2E7
:1009A0000822934208DC48F20222934273D048F2B4
:1009B0000422934261D090E0B3F5084F0AD0B3F51A
:1009C000094F7DD089E0494B00221A70484800F059
:1009D0008BF984E0454B00221A70464800F0ACF8D1
:1009E0007DE0424B00221A70424800F011F93F4B63
:1009F00001221A70404800F077F970E03B4B022268
:100A00001A703E4800F070F969E0384B03221A7002
:100A10003B4800F069F962E0344B02221A70394811
:100A200000F062F95BE0314B03221A70364800F0A7
:100A30005BF954E02D4B02221A70344800F054F94F
:100A40004DE02A4B03221A70314800F04DF946E080
:100A5000264B02221A702F4800F046F93FE0234B44
:100A600003221A702C4800F03FF938E01F4B002297
:100A70001A702A4800F038F931E01C4B00221A7035
:100A8000274800F031F92AE0184B00221A70254857
:100A900000F02AF923E0154B00221A70224800F0DA
:100AA00023F91CE0114B00221A70204800F01CF9B9
:100AB00015E00E4B00221A701D4800F015F90EE0EB
:100AC0000A4B00221A700B4800F00EF9074B002267
:100AD0001A70084800F030F801E000F051FB1548AA
:100AE0000121FFF70DFC0837BD4680BDD41300205F
:100AF000BC0000203C00002060030020E003002038
:100B0000840500203C0100208C0200202C060020DF
:100B100028070020FC070020F8080020CC0900204E
:100B20001C0B00206C0C0020600F00200012002025
:100B3000FC1200200048004080B584B000AF78600F
:100B4000314BFA221A70304BAF225A702E4B0022D2
:100B50009A702D4B0022DA702B4B24221A712A4BEB
:100B600002225A717B6802331B88DAB2264B9A71D3
:100B70000123FB600FE0FB685B000533FA68D1B22C
:100B8000214AD154FB6803335B001F4A0121D15431
:100B9000FB680133FB607B6802331B881AB2FB6879
:100BA0009A42E8DA0023FB720223FB6009E0164A4E
:100BB000FB6813441A78FB7A5340FB72FB680133DD
:100BC000FB607B6802331B881BB203335A00FB684F
:100BD0009A42ECDA7B6802331B881BB25B00073356
:100BE0000949FA7ACA547B6802331B88DBB25B007E
:100BF000DBB20733DAB2054B1A70786800F0A8FA56
:100C00001037BD4680BD00BFE8130020E41300206C
:100C100080B584B000AF7860314BFA221A70304B47
:100C2000AF225A702E4B00229A702D4B0022DA70A0
:100C30002B4B24221A712A4B02225A717B680233F1
:100C40001B88DAB2264B9A710123FB600FE0FB6828
:100C50005B000533FA68D1B2214AD154FB680333F3
:100C60005B001F4A0021D154FB680133FB607B68A5
:100C700002331B881AB2FB689A42E8DA0023FB723F
:100C80000223FB6009E0164AFB6813441A78FB7ADA
:100C90005340FB72FB680133FB607B6802331B88A7
:100CA0001BB203335A00FB689A42ECDA7B680233CA
:100CB0001B881BB25B0007330949FA7ACA547B6868
:100CC00002331B88DBB25B00DBB20733DAB2054BC1
:100CD0001A70786800F03CFA1037BD4680BD00BF3E
:100CE000E8130020E413002080B584B000AF7860E2
:100CF0008C4BFA221A708B4BAF225A70894B002210
:100D00009A70884B0022DA70864B1E221A71854B2E
:100D100005225A717B6802331B88DAB2814B9A71C3
:100D20000023FB8100237B737F4B1B781A467B6873
:100D30001B881BB201339A4280F2F2817B4B1B78F5
:100D4000002B40F0EC800023FB818EE0FA891346F3
:100D50009B0013440733FA890232520079680A442F
:100D60001288D1B26F4AD154FA8913469B001344BA
:100D700008336D4A1278013279680231098809B264
:100D8000023101FB02F1FA8902320A445200796809
:100D90000A441288D1B27A680232128810B2FA89F3
:100DA000024404325200786802441288D2B20A44E3
:100DB000D1B25C4AD154FA8913469B0013440933DB
:100DC000594A1278013279680231098809B2023130
:100DD00001FB02F1FA8902320A44520079680A449E
:100DE000128811B27A680232128810B2FA8902446B
:100DF0000432520078680244128812B20A44121275
:100E0000D1B2484AD154FA8913469B0013440A339D
:100E1000454A1278013279680231098809B20231F3
:100E200001FB02F2520079680A441288D1B23D4AAD
:100E3000D154FA8913469B0013440B333A4A127873
:100E4000013279680231098809B2023101FB02F2EC
:100E5000520079680A44128812B2121292B2D1B2C8
:100E6000304AD154FB890133FB81FA897B68023314
:100E70001B881BB29A42FFF669AF00237B730223E3
:100E8000FB810AE0FB89274AD35CDBB21A467B7BF5
:100E900053407B73FB890133FB81F9897B68023303
:100EA0001B881AB213469B00134406339942E9DDAE
:100EB0007B6802331B881AB213469B001344073326
:100EC000797B184AD1547B6802331B88DBB21A46FF
:100ED00092001344DBB20733DAB2154B1A7078680C
:100EE00000F036F9114B01221A70124B00221A60E1
:100EF0000D4B1B7801337A680232128812B202322B
:100F000002FB03F35B007A6813441B881AB2134692
:100F10009B0013445B001A46074B1A6006E100234E
:100F2000FB819CE0E8130020A4130020D5130020CF
:100F3000E4130020D8130020B8130020FA891346C8
:100F40009B0013440733FA890232520079680A443D
:100F50001288D1B2774AD154FA8913469B001344C0
:100F60000833754A1278013279680231098809B26A
:100F7000023101FB02F1FA8902320A445200796817
:100F80000A441288D1B27A680232128810B2FA8901
:100F9000024404325200786802441288D2B20A44F1
:100FA000D1B2644AD154FA8913469B0013440933E1
:100FB000614A1278013279680231098809B2023136
:100FC00001FB02F1FA8902320A44520079680A44AC
:100FD000128811B27A680232128810B2FA89024479
:100FE0000432520078680244128812B20A44121283
:100FF000D1B2504AD154FA8913469B0013440A33A4
:101000004D4A1278013279680231098809B20231F9
:1010100001FB02F20132520079680A441288D1B20F
:10102000444AD154FA8913469B0013440B33424A75
:101030001278013279680231098809B2023101FB64
:1010400002F20132520079680A44128812B2121276
:1010500092B2D1B2374AD154FB890133FB81FA896C
:101060007B6802331B881BB29A42FFF667AF0023EE
:101070007B730223FB810AE0FB892E4AD35CDBB23F
:101080001A467B7B53407B73FB890133FB81F989D3
:101090007B6802331B881AB213469B001344063345
:1010A0009942E9DD7B6802331B881AB213469B0024
:1010B00013440733797B1F4AD1547B6802331B8862
:1010C000DBB21A4692001344DBB20733DAB21B4B91
:1010D0001A70786800F03CF8194B00221A70194B0E
:1010E00000221A60144B1B7801337A68023212888E
:1010F00012B2023202FB03F301335B007A6813443D
:101100001B881AB213469B0013445B001A460E4B11
:101110001A60094B1B780133DAB2074B1A7005E0ED
:10112000054B01221A70084B084A1A601037BD4659
:1011300080BD00BFE8130020A4130020E4130020AA
:10114000D5130020D8130020B813002080969800F3
:1011500080B582B000AF7860074B1B789BB201333B
:101160009BB20648194600F0A1FC0448012100F09A
:1011700081FC0837BD4680BDE4130020B8640240FE
:1011800080B400AFBD465DF8047B704780B500AF0A
:101190000548064900F0D2FC0346002B03D0024864
:1011A000024900F023FD80BDB864024000800028A1
:1011B00080B489B000AF78600023BB6100237B61FD
:1011C0000023FB6102233B610023FB600223BB6021
:1011D000484B9B6803F00C03BB61BB69042B07D031
:1011E000082B09D0002B3FD17B68434A1A603FE0AF
:1011F0007B68424A1A603BE03E4B5B6803F4800325
:101200009B0DFB603B4B5B6803F03F03BB60FB68DF
:10121000002B0DD0394ABB68B2FBF3F2354B59684D
:1012200047F6C0730B409B0903FB02F3FB610CE024
:10123000314ABB68B2FBF3F22E4B596847F6C073D4
:101240000B409B0903FB02F3FB612A4B5B6803F431
:1012500040331B0C01335B003B61FA693B69B2FB15
:10126000F3F27B681A6003E07B68234A1A6000BFD0
:10127000204B9B6803F0F003BB61BB691B09BB619A
:101280001F4ABB6913441B78DBB27B617B681A6819
:101290007B69DA407B685A60164B9B6803F4E05325
:1012A000BB61BB699B0ABB61154ABB6913441B78D0
:1012B000DBB27B617B685A687B69DA407B689A6045
:1012C0000C4B9B6803F46043BB61BB695B0BBB6168
:1012D0000B4ABB6913441B78DBB27B617B685A689D
:1012E0007B69DA407B68DA602437BD465DF8047BB1
:1012F000704700BF003802400024F40040787D01B0
:10130000A813002080B483B000AF78600B46FB7058
:10131000FB78002B06D00949084B1A6B7B681343F6
:101320000B6306E00549054B1A6B7B68DB431340F2
:101330000B630C37BD465DF8047B704700380240F4
:1013400080B483B000AF78600B46FB70FB78002B55
:1013500006D00949084B1A6C7B6813430B6406E0FE
:101360000549054B1A6C7B68DB4313400B640C3753
:10137000BD465DF8047B70470038024080B483B0FE
:1013800000AF78600B46FB70FB78002B06D0094954
:10139000084B5A6C7B6813434B6406E00549054BC8
:1013A0005A6C7B68DB4313404B640C37BD465DF8D9
:1013B000047B70470038024080B584B000AF022043
:1013C0000121FFF7BDFF1D233B7000237B7000232D
:1013D000BB700123FB703B46184600F01FFD09233C
:1013E000BB6042F2CF03BB800023BB810023FB80A4
:1013F0000023BB733B1D0A48194600F06FFD0848E7
:10140000012100F019FE06480121012200F0F0FD43
:101410000348012100F0CCFD1037BD4680BD00BF60
:101420000004004080B500AF2B4B1B682B4A934251
:1014300045D12B4B1B78032B3AD801A252F823F04D
:10144000511400085B1400086B140008A71400086E
:10145000244B1A88244B1A802BE0234B1B8843F023
:1014600010039AB2204B1A8023E01F4B1B881A46A8
:101470004FF6EF7313401B4A1288934204D11A4B64
:101480001A88194B1A8014E0174B1B8843F020036D
:101490009AB2154B1A80144B1B8823F010039AB292
:1014A000114B1A8005E00F4B1A880F4B1A8000E091
:1014B00000BF0D4B1B881846FFF7F8F90AE0064BF2
:1014C0001A680A4B1B689A4204D8074B1B881846B7
:1014D000FFF7ECF980BD00BFB8130020809698009C
:1014E000D4130020D0130020D2130020D8130020E2
:1014F00080B500AF044B1B680133034A13600348F7
:10150000012100F099FD80BDD813002000040040A7
:1015100080B487B000AF7860396000237B6100231E
:101520003B610023FB6000237B6176E07B69012245
:1015300002FA03F33B613B681A683B691340FB60A6
:10154000FA683B699A4265D17B681A687B695B00DF
:10155000194603238B40DB431A407B681A607B6883
:101560001A683B681B7919467B695B0001FA03F333
:101570001A437B681A603B681B79012B03D03B68D8
:101580001B79022B2ED17B689A687B695B00194618
:1015900003238B40DB431A407B689A607B689A6820
:1015A0003B685B7919467B695B0001FA03F31A43D8
:1015B0007B689A607B685A687B699BB219460123F5
:1015C0008B40DB431A407B685A607B685B683A68F3
:1015D000927911467A6992B201FA02F292B21A43F2
:1015E0007B685A607B68DA687B699BB25B00032189
:1015F00001FA03F3DB431A407B68DA607B68DA6840
:101600003B68DB7919467B695B0001FA03F31A43F7
:101610007B68DA607B6901337B617B690F2B85D93D
:101620001C37BD465DF8047B704700BF80B483B0B3
:1016300000AF78600B467B807B687A881A830C3712
:10164000BD465DF8047B704780B485B000AF78601C
:101650000B467B8013467B700023FB600023BB603E
:101660007B787A8802F0070292009340FB607B88C7
:10167000DB089BB218467B88DB089BB21A467B6866
:10168000083253F822207B8803F007039B00194699
:101690000F238B40DB4302EA03017B6800F1080261
:1016A00043F822107B88DB089BB21A467B6808321D
:1016B00053F82220FB681343BB607B88DB089BB296
:1016C0001A467B680832B96843F822101437BD46C1
:1016D0005DF8047B704700BF80B500AF114A114B25
:1016E0001B6843F0010313600E4B00229A600D4A01
:1016F0000C4B1B6823F0847323F480331360094B75
:10170000094A5A60074A074B1B6823F48023136079
:10171000044B0022DA6000F00BF8044B4FF000623B
:101720009A6080BD003802401030002400ED00E0D7
:1017300080B483B000AF00237B6000233B60354A58
:10174000344B1B6843F480331360324B1B6803F443
:1017500000333B607B6801337B603B68002B03D127
:101760007B68B3F5A06FF0D12A4B1B6803F40033FC
:10177000002B02D001233B6001E000233B603B686B
:10178000012B42D1234A234B1B6C43F0805313643B
:10179000214A214B1B6843F4804313601D4A1D4BB3
:1017A0009B6893601B4A1B4B9B6843F40043936008
:1017B000184A184B9B6843F4A0539360154B174A83
:1017C0005A60144A134B1B6843F08073136000BFC8
:1017D000104B1B6803F00073002BF9D0104B40F244
:1017E00005621A600B4A0B4B9B6823F0030393605E
:1017F000084A084B9B6843F00203936000BF054B07
:101800009B6803F00C03082BF9D10C37BD465DF83B
:10181000047B7047003802400070004019544007B4
:10182000003C024080B483B000AF78607B681B68E6
:1018300023F001027B681A607B6800221A607B68D3
:1018400000225A607B6800229A607B680022DA607E
:101850007B6800221A617B6821225A617B68454AB5
:10186000934203D1444B3D229A607EE07B68434A19
:10187000934204D1404B4FF474629A6075E07B68E8
:101880003F4A934204D13C4B4FF474129A606CE08F
:101890007B683C4A934204D1374B4FF074629A60A4
:1018A00063E07B68384A934203D1334B374ADA60AE
:1018B0005BE07B68364A934203D12F4B354ADA60AE
:1018C00053E07B68344A934203D12B4B334ADA60AE
:1018D0004BE07B68324A934204D1274B4FF03D5294
:1018E000DA6042E07B682F4A934203D12E4B3D22BF
:1018F0009A603AE07B682D4A934204D12A4B4FF418
:1019000074629A6031E07B68294A934204D1264B85
:101910004FF474129A6028E07B68264A934204D1FF
:10192000214B4FF074629A601FE07B68224A934219
:1019300003D11D4B154ADA6017E07B681F4A9342BA
:1019400003D1194B134ADA600FE07B681C4A9342BB
:1019500003D1154B114ADA6007E07B68194A9342BC
:1019600003D1114B4FF03D52DA600C37BD465DF8A4
:10197000047B704710600240006002402860024013
:101980004060024058600240706002403D0000200C
:1019900088600240400F0020A060024000003D200F
:1019A000B8600240106402400064024028640240B3
:1019B00040640240586402407064024088640240FF
:1019C000A0640240B864024080B485B000AF786083
:1019D00039600023FB607B681B68FB60FA68244B5E
:1019E0001340FB603B681A683B68DB681A433B683E
:1019F0005B691A433B689B691A433B68DB691A437E
:101A00003B681B6A1A433B685B6A1A433B689B6AE4
:101A10001A433B685B6B1A433B689B6B1343FA6842
:101A20001343FB607B68FA681A607B685B69FB6044
:101A3000FB6823F00703FB603B68DA6A3B681B6BBB
:101A40001343FA681343FB607B68FA685A613B688A
:101A50001A697B685A603B685A687B689A603B6881
:101A60009A687B68DA601437BD465DF8047B70477E
:101A70003F801CF080B483B000AF78600B46FB70F1
:101A8000FB78002B06D07B681B6843F001027B6863
:101A90001A6005E07B681B6823F001027B681A600E
:101AA0000C37BD465DF8047B704700BF80B483B03F
:101AB00000AF78600B467B807A887B685A600C3771
:101AC000BD465DF8047B704780B485B000AFF86018
:101AD000B9601346FB71BB6803F08003002B0FD085
:101AE000FB79002B06D0FB685B6943F08002FB6842
:101AF0005A6105E0FB685B6923F08002FB685A616C
:101B0000BB68802B14D0FB79002B08D0FB681A68C7
:101B1000BB6803F01E031A43FB681A6008E0FB6809
:101B20001A68BB6803F01E03DB431A40FB681A60A7
:101B30001437BD465DF8047B704700BF80B487B0A2
:101B400000AF786039600023FB750023FB60002341
:101B5000BB607B68224A934202D8224B3B6101E082
:101B6000214B3B613B6823F0F02323F0C313002B90
:101B70000AD03B68DB0A03F01E03FB607B681A682F
:101B8000FB681340BB6004E07B685B6903F0800383
:101B9000BB603B6803F00053002B03D03B695B68DC
:101BA000FB6002E03B691B68FB60FB6823F0F023ED
:101BB00023F08213FB60FA683B681340002B05D0CA
:101BC000BB68002B02D00123FB7501E00023FB75ED
:101BD000FB7D18461C37BD465DF8047B704700BF8F
:101BE0000F640240006002400064024080B485B08F
:101BF00000AF786039607B68104A934202D8104B7E
:101C0000FB6001E00F4BFB603B6803F00053002BCF
:101C100007D03B6823F0F02323F08213FA68D360E7
:101C200006E03B6823F0F02323F08213FA68936008
:101C30001437BD465DF8047B704700BF0F64024057
:101C4000006002400064024080B588B000AF2723E6
:101C50003B7700237B770023BB770123FB7707F1DA
:101C60001C03184600F0DAF804200121FFF74AFBB4
:101C70004FF480200121FFF763FB4FF440637B6149
:101C800002233B760023BB760023FB7602237B7680
:101C900007F1140316481946FFF73AFC14480A21C5
:101CA0000722FFF7D1FC12480B210722FFF7CCFCDB
:101CB0004FF4E1337B6000233B8100237B810023D1
:101CC000BB8100233B820C23FB813B1D0948194645
:101CD000FEF75AFA074840F225510122FEF764FB4D
:101CE00004480121FEF70CFB2037BD4680BD00BF34
:101CF000000802400048004080B400AFBD465DF8D7
:101D0000047B704780B582B000AF0023FB803C4865
:101D100040F22551FEF790FB0346002B6DD038486A
:101D200040F225510022FEF73FFB354840F2255195
:101D3000FEF7DEFB3248FEF703FB0346DBB2FB8017
:101D4000FB8803F08003002B19D02E4B00221A8051
:101D5000FB881B029AB22B4B1A802B4B1B78002B53
:101D600006D02A4B1B780133DAB2284B1A7002E0F6
:101D7000264B00221A70244B01221A701EE0214BC0
:101D80001A88FB8853409AB21E4B1A801D4B1A8842
:101D90001F4B1A801D4B00221A701B4B1B78002B07
:101DA00006D11A4B1B780133DAB2184B1A7002E0D5
:101DB000164B00221A70144B00221A70134B1B781A
:101DC000002B0AD0134B1A88114B1A80104B1A881B
:101DD0000C4B1A800C4B00221A700C4B1B78092BF1
:101DE00005D90D484FF40061FFF720FCF9E70448DE
:101DF00040F225510122FEF7D7FA0837BD4680BDD3
:101E000000480040DC130020DE130020DF13002018
:101E1000D0130020D21300200000024080B485B00F
:101E200000AF78600023FB730023BB730F237B7329
:101E30007B68DB78002B38D0264BDB68DB4303F470
:101E4000E0631B0AFB73FB7BC3F10403BB737A7B68
:101E5000FB7B42FA03F37B737B685B781A46BB7BA0
:101E600002FA03F3FB737B689A787B7B1340DAB248
:101E7000FB7B1343FB73FB7B1B01FB73164A7B68E5
:101E80001B781344FA7B83F80023134A7B681B7882
:101E90005B09DBB218467B681B7803F01F03012146
:101EA00001FA03F342F820300FE00B497B681B78FE
:101EB0005B09DBB218467B681B7803F01F03012225
:101EC0009A4000F1200341F823201437BD465DF805
:101ED000047B704700ED00E000E100E080B485B0D5
:101EE00000AF786039600023FB817B681B88FB8131
:101EF0007B68284A934213D07B68274A93420FD0CD
:101F00007B68B3F1804F0BD07B68244A934207D0A3
:101F10007B68234A934203D07B68224A934208D1CC
:101F2000FB8923F07003FB813B685A88FB891343CC
:101F3000FB817B681C4A93420CD07B681B4A93420E
:101F400008D0FB8923F44073FB813B681A89FB8925
:101F50001343FB817B68FA891A803B685A687B6867
:101F6000DA623B681A887B681A857B68094A934263
:101F700003D07B68084A934204D13B689B7A9AB2AB
:101F80007B681A867B6801229A821437BD465DF809
:101F9000047B704700000140000401400004004041
:101FA00000080040000C00400010004000140040F9
:101FB00080B483B000AF78600B46FB70FB78002BD9
:101FC00008D07B681B889BB243F001039AB27B6800
:101FD0001A8007E07B681B889BB223F001039AB24A
:101FE0007B681A800C37BD465DF8047B704700BFE4
:101FF00080B483B000AF78600B467B8013467B7063
:102000007B78002B08D07B689B899AB27B8813432E
:102010009AB27B689A8109E07B689B899AB27B8837
:10202000DB439BB213409AB27B689A810C37BD4662
:102030005DF8047B704700BF80B483B000AF786068
:102040000B467B807B88DB439AB27B681A820C3715
:08205000BD465DF8047B7047FA
:1020580001000100010064006400840364000000C2
:1020680000000000010001000100640064007CFC25
:10207800640000000000000001000100010064008D
:1020880064003EFE6400000000000000020013002F
:102098000100020003000400050006000700080014
:1020A80009000A000B000C000D000E000F001000C4
:1020B8001100120013006400000000007C01000001
:1020C8000000000000006400A2FE00000000000004
:1020D80000000000CEFF000000000000000000002B
:1020E8006400000000000000000000000000000084
:1020F80000000000000000000000000000000000D8
:1021080000000000000000000000000002001300B2
:102118000100020003000400050006000700080093
:1021280009000A000B000C000D000E000F00100043
:102138001100120013006400000000007C01000080
:102148000000000000006400A2FE00000000000083
:1021580000000000CEFF00000000000000000000AA
:102168000500000000000000000000000000000062
:102178000000000000000000000000000000000057
:10218800000000000000000000000000060013002E
:102198000100020003000400050006000700080013
:1021A80009000A000B000C000D000E000F001000C3
:1021B8001100120013006400000000007C01000000
:1021C8000000000000006400A2FE00000000000003
:1021D80000000000CEFF000000000000000000002A
:1021E800050000000000B0FFFA00FA006400640077
:1021F8002C01000096006AFFD4FED4FE32000000D5
:1022080038FFC800000038FF38FF03000200000054
:1022180038FF38FF38FF0CFE0CFE2C010000FA00D6
:1022280006FFD4FED4FE3200000038FFC8000000CC
:1022380038FF38FF050000000000B0FF38FF38FF06
:10224800CEFFCEFF96006400C80038FFD4FED4FE4F
:102258003200000038FFC8002C0138FF38FF0500A5
:10226800000000000000960096002C012C013200AE
:102278005000FA0006FF9CFF9CFF2C01000038FF6D
:10228800C800000038FF38FF03000200000000000B
:10229800FA00FA002C012C013200C80038FFC800EF
:1022A800F401F4012C01000038FFC800000038FFD9
:1022B80038FF0500000000009CFFC800C8002C0182
:1022C8002C013200500038FFC8003200320096005E
:1022D800000038FFC800000038FF38FF0300130073
:1022E80001000200030004000500060007000800C2
:1022F80009000A000B000C000D000E000F00100072
:102308001100120013006400000000007C010000AE
:102318000000000000006400A2FE000000000000B1
:1023280000000000CEFF00000000000000000000D8
:10233800050000000000B0FFFA00FA006400640025
:102348002C01000096006AFFD4FED4FE3200000083
:1023580038FFC800000038FF38FF05000000000003
:102368009CFFC800C80038FF38FF32005000C80082
:1023780038FFC800C8009600000038FFC8000000F9
:1023880038FF38FF030000000000000000000000D4
:102398000000000000000000000000000000000035
:1023A8000000000038FFC800000038FF38FF0000B8
:1023B80001001300010002000300040005000600EC
:1023C8000700080009000A000B000C000D000E00B1
:1023D8000F0010001100120013006400000000003C
:1023E8007C0100000000000000006400A2FE000064
:1023F8000000000000000000CEFF00000000000008
:10240800000000001E00320038FF64006400640011
:10241800000000006AFF500064009CFFCEFFCEFF62
:102428009001000038FFC800000038FF38FF0000A6
:102438000800130001000200030004000500060064
:102448000700080009000A000B000C000D000E0030
:102458000F001000110012001300640000000000BB
:102468007C0100000000000000006400A2FE0000E3
:102478000000000000000000CEFF00000000000087
:10248800000000000700000038FF640064006400DA
:10249800000000006AFF500064009CFFCEFFCEFFE2
:1024A8009001000038FFC800000038FF38FF000026
:1024B80000006AFF640064006400000000006AFF16
:1024C80050003200CEFFCEFFCEFFC800000038FF1C
:1024D800C800000038FF38FF0500000070FE6400E7
:1024E8006AFF6AFF00000000000050005E01A2FEC3
:1024F8006AFF6AFFC800D4FE38FFC800D4FE38FF60
:1025080038FF0200000038FF9CFF38FF38FF00004A
:10251800000006FF50005E01A2FE06FF06FF000055
:10252800000038FFC800000038FF38FF070000002F
:10253800C800B0FF640064003200320090019CFFC4
:1025480064009CFF000000006AFF000038FFC8001C
:10255800000038FF38FF000000009600B0FF32008E
:10256800320032003200C8009CFF64009CFF00006B
:1025780000006AFF000038FFC800000038FF38FF7D
:10258800050000009001B0FF5E015E019600960014
:10259800C8009CFF6AFF96000000000000002C01A4
:1025A80038FFC8002C0138FF38FF02000000C800BF
:1025B800B0FF5E015E01FA00FA000000640038FF17
:1025C800C8000000000006FF000038FFC800000037
:1025D80038FF38FF02001300010002000300040066
:1025E800050006000700080009000A000B000C009F
:1025F8000D000E000F0010001100120013006400FF
:10260800000000007C0100000000000000006400E1
:10261800A2FE00000000000000000000CEFF000045
:102628000000000000000000050007002C01B0FFBA
:1026380064006400320032006AFF00002C01D4FEFE
:1026480006FF06FF9CFF000038FFC800000038FFA7
:1026580038FF0A003200000000003200320000009B
:1026680000000000000096006AFF9CFF9CFF00002D
:10267800000038FFC800000038FF38FF04001300CE
:10268800010002000300040005000600070008001E
:1026980009000A000B000C000D000E000F001000CE
:1026A8001100120013001400000000007C0100005B
:1026B8000000000000006400A2FE0000000000000E
:1026C80000000000CEFF0000000000000000000035
:1026D80006000000C80000007EFF7EFF8200820026
:1026E80000003200CEFF3200CEFFCEFF32000000E5
:1026F8000000000000000000000005000500C80000
:10270800000038FF38FFC800C800C800FA0064009D
:102718009CFF960096003200000000009CFF00001D
:102728000000000006000000C800CEFF38FF38FF98
:10273800C800C800000032000000000000000000CF
:102748003200000000000000000000000000070048
:102758000000C800000000000000000000000000A9
:102768000000000000000000000000000000000061
:102778000000000000000000030013000100020038
:1027880003000400050006000700080009000A000D
:102798000B000C000D000E000F00100011001200BD
:1027A80013001400000000007C010000000000007D
:1027B80000006400A2FE000000000000000000000D
:1027C800CEFF000000000000000000000400000030
:1027D800C80000009CFF9CFF6400640000006400C7
:1027E800C80038FFC800C8003200000000009CFF85
:1027F80000000000000005000000C8009CFF9CFFCE
:102808009CFF640064002C016400B4006AFF960019
:10281800640032000000000000000000000000001A
:1028280003000000C80000001E001E00E2FFE2FFD7
:1028380038FF960000000000000000003200000091
:102848000000000000000000000000000400130069
:10285800010002000300040005000600070008004C
:1028680009000A000B000C000D000E000F001000FC
:102878001100120013001400000000007C01000089
:102888000000000000006400A2FE0000000000003C
:1028980000000000CEFF0000000000000000000063
:1028A8000600000038FFCEFFCEFFCEFF3200320018
:1028B800320000007EFF82007EFF7EFF00000000E5
:1028C800000000000000000000000500050038FFBF
:1028D80006FF640064006AFF6AFF3200000038FFE8
:1028E800C80038FF38FFC8000000000000000000E2
:1028F800640000000600000038FFCEFF0000000062
:10290800000000003200320038FFC80038FF38FFEE
:1029180000000000000000000000000000000700A8
:10292800000038FF00000000000000000000000068
:10293800000000000000000000000000000000008F
:102948000000000000000000030013000100020066
:1029580003000400050006000700080009000A003B
:102968000B000C000D000E000F00100011001200EB
:1029780013001400000000007C01000000000000AB
:1029880000006400A2FE000000000000000000003B
:10299800CEFF00000000000000000000040000005E
:1029A80038FF9CFFC800C80038FF38FF320000001D
:1029B8009CFF64009CFF9CFF0000000000000000DA
:1029C8000000640000000500000038FF9CFFB40010
:1029D80096006AFF9CFF320064009CFF64009CFF25
:1029E8009CFF2C0100000000000000000000000017
:1029F8000300000038FF6AFF00000000000000002C
:102A0800320000001E00E2FF1E001E0038FF00001A
:102A18000000000000000000000000000600130095
:102A2800010002000300040005000600070008007A
:102A380009000A000B000C000D000E000F0010002A
:102A48001100120013006400000000002C010000B7
:102A58000000320032009600D4FE00000000CEFFD5
:102A6800CEFF64000000000000000000000000002D
:102A7800030000000000000000000000000000004B
:102A880000000000000000000000000064000000DA
:102A9800000000000000000000001400000000001A
:102AA80070FE70FE70FE90019001C8009CFF00004F
:102AB8000000000000002C010000000000000000E1
:102AC800C800C80014005000000070FE70FE70FEC0
:102AD80090019001C8009CFF000000000000000069
:102AE80096000000E80318FC0000C800C8001400A5
:102AF800500000000000F401F4010CFE0CFE000080
:102B08000000F4010CFEF401F401000000002C01A7
:102B1800D4FE00002C012C011E0000000000000063
:102B28002C012C0100000000000000002C01D4FE44
:102B3800000000000000000000000000000000008D
:102B480000001E000000000000000000000000005F
:102B5800000000000000000000000000000000006D
:102B68000000000000000000000000000600130044
:102B78000100020003000400050006000700080029
:102B880009000A000B000C000D000E000F001000D9
:102B98001100120013006400000000002C01000066
:102BA8000000320032009600D4FE00000000CEFF84
:102BB800CEFF6400000000000000000000000000DC
:102BC80003000000000000000000000000000000FA
:102BD8006400000000000000000000000000000089
:102BE80000000000000000000000140000000000C9
:102BF800640000000000000000002C01900170FE3D
:102C0800900170FE70FEC8000000C80038FF000088
:102C180000000000140050000000640000000000E4
:102C2800000000009600900170FE900170FE70FE9A
:102C3800C8000000C80038FF0000E803E8031400DB
:102C4800500000000000F401F4010CFE0CFE00002E
:102C58000000F4010CFEF401F401000000002C0156
:102C6800D4FE00002C012C011E0000000000000012
:102C78002C012C0100000000000000002C01D4FEF3
:102C8800000000000000000000000000000000003C
:102C980000001E000000000000000000000000000E
:102CA800000000000000000000000000000000001C
:102CB8000000000000000000000000000700000005
:102CC80013000000010000000200000003000000E3
:102CD80004000000050000000600000007000000D6
:102CE80008000000090000000A0000000B000000B6
:102CF8000C0000000D0000000E0000000F00000096
:102D08001000000011000000120000001300000075
:102D18006400000000000000000000007C010000CA
:102D2800000000000000000000000000000000009B
:102D380064000000A2FEFFFF000000000000000089
:102D4800000000000000000000000000CEFFFFFFB0
:102D5800000000000000000000000000000000006B
:102D680000000000960000000000000000000000C5
:102D780000000000D6010000D60100002AFEFFFF77
:102D88002AFEFFFF0000000000000000D60100003E
:102D98002AFEFFFFD6010000D60100000000000057
:102DA80084030000C20100003EFEFFFF7CFCFFFF21
:102DB800C2010000C20100009600000000000000EF
:102DC80000000000D4FEFFFFEA010000EA01000055
:102DD80016FEFFFF16FEFFFF2C0100002C0100006D
:102DE800EA01000016FEFFFFEA010000EA01000008
:102DF8002C01000084030000A8FDFFFF580200001A
:102E08007CFCFFFFA8FDFFFFA8FDFFFF9600000068
:102E180000000000F4010000D4FEFFFFEA010000FA
:102E2800EA01000016FEFFFF16FEFFFF2C0100005E
:102E38002C010000EA01000016FEFFFFEA01000075
:102E4800EA0100002C01000084030000A8FDFFFF38
:102E5800580200007CFCFFFF00000000000000009A
:102E6800960000000000000058020000D4FEFFFF9A
:102E7800EA010000EA01000016FEFFFF16FEFFFF50
:102E88002C0100002C010000EA01000016FEFFFFE3
:102E9800EA010000EA0100002C01000084030000A0
:102EA800A8FDFFFF58020000A8FDFFFF38FFFFFF45
:102EB80038FFFFFF64000000000000005802000017
:102EC800D4FEFFFFEA010000EA01000016FEFFFF42
:102ED80016FEFFFF2C0100002C010000EA01000093
:102EE80016FEFFFFEA010000EA0100002C010000C5
:102EF80084030000A8FDFFFF58020000A8FDFFFFA3
:102F080038FFFFFF38FFFFFF6400000000000000EB
:102F1800000000007CFCFFFFD6010000D601000085
:102F28002AFEFFFF2AFEFFFF84030000840300003F
:102F3800D60100002AFEFFFFD6010000D6010000DE
:102F48008403000000000000840300007CFCFFFFF5
:102F580000000000840300008403000064000000F7
:102F6800000000000000000000000000D601000082
:102F7800D60100002AFEFFFF2AFEFFFF0000000026
:102F880000000000D60100002AFEFFFFD601000065
:102F9800D60100000000000084030000C201000008
:102FA8003EFEFFFF7CFCFFFFC2010000C2010000E3
:102FB80006000000130000000100000002000000ED
:102FC80003000000040000000500000006000000E7
:102FD8000700000008000000090000000A000000C7
:102FE8000B0000000C0000000D0000000E000000A7
:102FF8000F00000010000000110000001200000087
:103008001300000064000000000000000000000041
:103018007C0100000000000000000000000000002B
:103028000000000064000000A2FEFFFF0000000096
:103038000000000000000000000000000000000088
:10304800CEFFFFFF000000000000000000000000AD
:1030580000000000000000009600000000000000D2
:103068000000000000000000D6010000D6010000AA
:103078002AFEFFFF2AFEFFFF0000000000000000FC
:10308800D60100002AFEFFFFD6010000D60100008D
:103098000000000084030000C20100003EFEFFFFA4
:1030A8007CFCFFFFC2010000C20100009600000086
:1030B800000000000000000038FFFFFFD6010000FC
:1030C800D60100002AFEFFFF2AFEFFFF00000000D5
:1030D800C8000000D60100002AFEFFFFD60100004C
:1030E800D601000000000000840300001405000061
:1030F800ECFAFFFF7CFCFFFF14050000140500003C
:103108009600000000000000F401000070FEFFFFC0
:10311800D6010000D60100002AFEFFFF2AFEFFFFAD
:103128002C01000090010000D60100002AFEFFFFDC
:10313800D6010000D60100002C010000780500002F
:10314800BC02000044FDFFFF7CFCFFFF840300007D
:1031580084030000960000000000000058020000F0
:10316800D4FEFFFFEA010000EA01000016FEFFFF9F
:1031780016FEFFFF2C0100002C010000EA010000F0
:1031880016FEFFFFEA010000EA0100002C01000022
:10319800F4010000A8FDFFFF58020000B4FBFFFF88
:1031A8004C0400004C040000640000000000000013
:1031B80058020000D4FEFFFFEA010000EA01000007
:1031C80016FEFFFF16FEFFFF2C0100002C01000079
:1031D800EA01000016FEFFFFEA010000EA01000014
:1031E8002C01000084030000A8FDFFFF5802000026
:1031F800A8FDFFFF38FFFFFF38FFFFFF6400000056
:1032080000000000000000000000000000000000B6
:1032180000000000000000000000000000000000A6
:103228000000000000000000000000000000000096
:103238000000000000000000000000000000000086
:103248000000000000000000000000000000000076
:10325800040013000100020003000400050006003A
:103268000700080009000A000B000C000D000E0002
:103278000F0010001100120013006400000000008D
:103288007C0100000000000000006400A2FE0000B5
:103298000000000000000000CEFF00000000000059
:1032A800000000006400000000000000D4FED4FE0E
:1032B8002C012C0100000000D4FE2C01D4FED4FE09
:1032C8000000DC05D4FE2C0124FAD4FED4FE3C0018
:1032D800000000000000D4FED4FE2C012C010000E8
:1032E8000000D4FE2C01D4FED4FE0000DC05D4FE80
:1032F8002C0124FAD4FED4FE2800000000000000AF
:10330800C800C80038FF38FF00000000C80038FFB8
:10331800C800C80000000000D4FE2C010000D4FE44
:10332800D4FE3C00000000000000C800C80038FFC0
:1033380038FF00000000C80038FFC800C8000000BF
:103348000000D4FE2C010000D4FED4FE02001300BD
:103358000100020003000400050006000700080041
:1033680009000A000B000C000D000E000F001000F1
:103378001100120013006400000000007C0100002E
:103388000000000000006400A2FE00000000000031
:1033980000000000CEFF0000000000000000000058
:1033A80046000000000000000000000000000000CF
:1033B8000000000000000000000000000000000005
:1033C8001405ECFA000000000000460000000000B0
:1033D80000000000000000000000000000000000E5
:1033E80000000000000000000000BC0244FD0000D6
:1033F80000000000010000000000000001020304BA
:10340800010203040607080980969800007A030A57
:10341800000000000000000001020304060708097C
:0434280000800080A0
:0400000508000000EF
:00000001FF
